{
  "transactions": [
    {
      "hash": "0x6d68f7bdadaa2eb5c87ea25609f77fd99dce28f8ca826a91349dfebbce692290",
      "transactionType": "CALL",
      "contractName": null,
      "contractAddress": "0xfb3e0c6f74eb1a21cc1da29aec80d2dfe6c9a317",
      "function": "initialize((address,address,uint24,int24,address),uint160)",
      "arguments": [
        "(0x0eFf88D35f413cD1146269D916fb87A451B03d6D, 0x4713635357F9d01cBAF4DAc7E93B66D69544DEa8, 8388608, 60, 0xA429a75F874B899Ee6b0ea080d7281544506b8c0)",
        "79228162514264337593543950336000000"
      ],
      "transaction": {
        "from": "0x8dc791f24589f480ff31fe654d09bd01b5c5c2e8",
        "to": "0xfb3e0c6f74eb1a21cc1da29aec80d2dfe6c9a317",
        "gas": "0x3ebae",
        "value": "0x0",
        "input": "0x6276cbbe0000000000000000000000000eff88d35f413cd1146269d916fb87a451b03d6d0000000000000000000000004713635357f9d01cbaf4dac7e93b66d69544dea80000000000000000000000000000000000000000000000000000000000800000000000000000000000000000000000000000000000000000000000000000003c000000000000000000000000a429a75f874b899ee6b0ea080d7281544506b8c000000000000000000000000000000000000f4240000000000000000000000000",
        "nonce": "0x6a",
        "chainId": "0x66eee"
      },
      "additionalContracts": [],
      "isFixedGasLimit": false
    }
  ],
  "receipts": [
    {
      "status": "0x1",
      "cumulativeGasUsed": "0x2e853",
      "logs": [
        {
          "address": "0xfb3e0c6f74eb1a21cc1da29aec80d2dfe6c9a317",
          "topics": [
            "0xdd466e674ea557f56295e2d0218a125ea4b4f0f6f3307b95f85e6110838d6438",
            "0xc15b2ad449acb8cc5edb1e6692516748b430a75c37ce6f80d8fad1b5aac9082c",
            "0x0000000000000000000000000eff88d35f413cd1146269d916fb87a451b03d6d",
            "0x0000000000000000000000004713635357f9d01cbaf4dac7e93b66d69544dea8"
          ],
          "data": "0x0000000000000000000000000000000000000000000000000000000000800000000000000000000000000000000000000000000000000000000000000000003c000000000000000000000000a429a75f874b899ee6b0ea080d7281544506b8c000000000000000000000000000000000000f42400000000000000000000000000000000000000000000000000000000000000000000000000000000000043764",
          "blockHash": "0xd7d4205747a61618df3b275a8a1b1cc55b8cca53ffacfcb336502672ec06b956",
          "blockNumber": "0x81dad45",
          "transactionHash": "0x6d68f7bdadaa2eb5c87ea25609f77fd99dce28f8ca826a91349dfebbce692290",
          "transactionIndex": "0x1",
          "logIndex": "0x0",
          "removed": false
        },
        {
          "address": "0xa429a75f874b899ee6b0ea080d7281544506b8c0",
          "topics": [
            "0xebcc9ffea17e08841d7588f2ecd87720e1cfb444bb3b5e662c4a5005c3c94ab2",
            "0xc15b2ad449acb8cc5edb1e6692516748b430a75c37ce6f80d8fad1b5aac9082c"
          ],
          "data": "0x",
          "blockHash": "0xd7d4205747a61618df3b275a8a1b1cc55b8cca53ffacfcb336502672ec06b956",
          "blockNumber": "0x81dad45",
          "transactionHash": "0x6d68f7bdadaa2eb5c87ea25609f77fd99dce28f8ca826a91349dfebbce692290",
          "transactionIndex": "0x1",
          "logIndex": "0x1",
          "removed": false
        }
      ],
      "logsBloom": "0x00000000000000000080000000000000000000000000000000000000040000000000000000080000004000000000000000000000000000000000000000000040000000008000000000000000000000000000000000000000000000000000000000000000000400000000000100000000000000000000000000000000200000000000000100000008000000040000000000000001000000000000000000200000000000000000000000000000000000000000000100001000000000000000000000000000000000000000000000000800000000000000000000000000000000000400000000000000000000000000000001000000000000200000000000000004",
      "type": "0x2",
      "transactionHash": "0x6d68f7bdadaa2eb5c87ea25609f77fd99dce28f8ca826a91349dfebbce692290",
      "transactionIndex": "0x1",
      "blockHash": "0xd7d4205747a61618df3b275a8a1b1cc55b8cca53ffacfcb336502672ec06b956",
      "blockNumber": "0x81dad45",
      "gasUsed": "0x2e853",
      "effectiveGasPrice": "0x5f5e100",
      "from": "0x8dc791f24589f480ff31fe654d09bd01b5c5c2e8",
      "to": "0xfb3e0c6f74eb1a21cc1da29aec80d2dfe6c9a317",
      "contractAddress": null,
      "gasUsedForL1": "0x4b93",
      "l1BlockNumber": "0x79e0df"
    }
  ],
  "libraries": [],
  "pending": [],
  "returns": {},
  "timestamp": 1743016966,
  "chain": 421614,
  "commit": "edd7f9e"
}