{
  "transactions": [
    {
      "hash": "0xdca61533e3feddeeb5410d8b794287b8ff39d1fb9b2b0aea6ef42e55e47ef4dd",
      "transactionType": "CALL",
      "contractName": null,
      "contractAddress": "0xfb3e0c6f74eb1a21cc1da29aec80d2dfe6c9a317",
      "function": "initialize((address,address,uint24,int24,address),uint160)",
      "arguments": [
        "(0x2ed7De542Ce7377Bca3f3500dA4e7aF830889635, 0x75e8927FFabD709D7e55Ed44C7a19166A0B215A7, 8388608, 60, 0xd6F1Cd295Bf3cfeFA4c09B455A420edaEad478c0)",
        "79228162514264337593543950336"
      ],
      "transaction": {
        "from": "0x8dc791f24589f480ff31fe654d09bd01b5c5c2e8",
        "to": "0xfb3e0c6f74eb1a21cc1da29aec80d2dfe6c9a317",
        "gas": "0x3706a",
        "value": "0x0",
        "input": "0x6276cbbe0000000000000000000000002ed7de542ce7377bca3f3500da4e7af83088963500000000000000000000000075e8927ffabd709d7e55ed44c7a19166a0b215a70000000000000000000000000000000000000000000000000000000000800000000000000000000000000000000000000000000000000000000000000000003c000000000000000000000000d6f1cd295bf3cfefa4c09b455a420edaead478c00000000000000000000000000000000000000001000000000000000000000000",
        "nonce": "0x57",
        "chainId": "0x66eee"
      },
      "additionalContracts": [],
      "isFixedGasLimit": false
    }
  ],
  "receipts": [
    {
      "status": "0x1",
      "cumulativeGasUsed": "0x38641",
      "logs": [
        {
          "address": "0xfb3e0c6f74eb1a21cc1da29aec80d2dfe6c9a317",
          "topics": [
            "0xdd466e674ea557f56295e2d0218a125ea4b4f0f6f3307b95f85e6110838d6438",
            "0xd747d5c96aa744c2284ef5763974ac7c63e84ca7e0b6ba1c21d1ea0cbcda869e",
            "0x0000000000000000000000002ed7de542ce7377bca3f3500da4e7af830889635",
            "0x00000000000000000000000075e8927ffabd709d7e55ed44c7a19166a0b215a7"
          ],
          "data": "0x0000000000000000000000000000000000000000000000000000000000800000000000000000000000000000000000000000000000000000000000000000003c000000000000000000000000d6f1cd295bf3cfefa4c09b455a420edaead478c000000000000000000000000000000000000000010000000000000000000000000000000000000000000000000000000000000000000000000000000000000000",
          "blockHash": "0x9052f21053ae0753062d373d940795f3bcb9579ccd1b070632b1a56fa2761bcc",
          "blockNumber": "0x81959cd",
          "transactionHash": "0xdca61533e3feddeeb5410d8b794287b8ff39d1fb9b2b0aea6ef42e55e47ef4dd",
          "transactionIndex": "0x3",
          "logIndex": "0x2",
          "removed": false
        },
        {
          "address": "0xd6f1cd295bf3cfefa4c09b455a420edaead478c0",
          "topics": [
            "0xebcc9ffea17e08841d7588f2ecd87720e1cfb444bb3b5e662c4a5005c3c94ab2",
            "0xd747d5c96aa744c2284ef5763974ac7c63e84ca7e0b6ba1c21d1ea0cbcda869e"
          ],
          "data": "0x",
          "blockHash": "0x9052f21053ae0753062d373d940795f3bcb9579ccd1b070632b1a56fa2761bcc",
          "blockNumber": "0x81959cd",
          "transactionHash": "0xdca61533e3feddeeb5410d8b794287b8ff39d1fb9b2b0aea6ef42e55e47ef4dd",
          "transactionIndex": "0x3",
          "logIndex": "0x3",
          "removed": false
        }
      ],
      "logsBloom": "0x00000000000000000000000000000400000000000000000000000000000000000000000800000000000000000002000000000000000000000000000000000040000000000000000000000000000002000000000200000000000000000000000000000000000400000000400000000000000000000000000008000000000000800000000000000048000000000004000000000001000000000000000000200000000000000000000000000200000000000000000000001000000000000000000000000000000000000000000000000000000000000000000000000000000000000400000000000000000000000000000000000000000000200000000008000004",
      "type": "0x2",
      "transactionHash": "0xdca61533e3feddeeb5410d8b794287b8ff39d1fb9b2b0aea6ef42e55e47ef4dd",
      "transactionIndex": "0x3",
      "blockHash": "0x9052f21053ae0753062d373d940795f3bcb9579ccd1b070632b1a56fa2761bcc",
      "blockNumber": "0x81959cd",
      "gasUsed": "0x29b63",
      "effectiveGasPrice": "0x5f5e100",
      "from": "0x8dc791f24589f480ff31fe654d09bd01b5c5c2e8",
      "to": "0xfb3e0c6f74eb1a21cc1da29aec80d2dfe6c9a317",
      "contractAddress": null,
      "gasUsedForL1": "0x0",
      "l1BlockNumber": "0x79c882"
    }
  ],
  "libraries": [],
  "pending": [],
  "returns": {},
  "timestamp": 1742941937,
  "chain": 421614,
  "commit": "0399ad8"
}