{
  "transactions": [
    {
      "hash": "0xa82328a3cf85b12f206dec54fcecc835bd85f027c845b5b6d2e4e2b2c45c3b45",
      "transactionType": "CALL",
      "contractName": null,
      "contractAddress": "0x68bea2216aad6733e5fb17f2bb121a0382f00e9f",
      "function": "create((string,(string,string,(string,string,string)[]),address,address,(bool,bool,uint256,uint256),uint256,uint256,uint256,uint256[],uint256,(uint8,uint256,uint256,uint256),(uint8,uint256,uint256,uint256),uint256,uint256,uint256))",
      "arguments": [
        "(0.1.0, (Edge Experiment Signals Board, Default board deployed via script for the Edge Experiment environment., []), 0x8DC791f24589F480fF31Fe654D09bD01B5c5c2E8, 0x9265E5DF98c2Aa68aB89fbC68ab2404553DFa07b, (false, false, 250000000000000000, 1000000000000000000000000), 7, 86400, 1, [920000000000000000], 259200, (1, 10000000000000000000000, 0, 20000000000000000000000), (1, 10000000000000000000000, 0, 5000000000000000000000), 0, 1762835468, 1765427468)"
      ],
      "transaction": {
        "from": "0x8dc791f24589f480ff31fe654d09bd01b5c5c2e8",
        "to": "0x68bea2216aad6733e5fb17f2bb121a0382f00e9f",
        "gas": "0xb5d7d",
        "value": "0x0",
        "input": "0x6ba9d59f0000000000000000000000000000000000000000000000000000000000000020000000000000000000000000000000000000000000000000000000000000030000000000000000000000000000000000000000000000000000000000000003400000000000000000000000008dc791f24589f480ff31fe654d09bd01b5c5c2e80000000000000000000000009265e5df98c2aa68ab89fbc68ab2404553dfa07b0000000000000000000000000000000000000000000000000000000000000000000000000000000000000000000000000000000000000000000000000000000000000000000000000000000000000000000000000000000003782dace9d9000000000000000000000000000000000000000000000000d3c21bcecceda10000000000000000000000000000000000000000000000000000000000000000000007000000000000000000000000000000000000000000000000000000000001518000000000000000000000000000000000000000000000000000000000000000010000000000000000000000000000000000000000000000000000000000000480000000000000000000000000000000000000000000000000000000000003f480000000000000000000000000000000000000000000000000000000000000000100000000000000000000000000000000000000000000021e19e0c9bab2400000000000000000000000000000000000000000000000000000000000000000000000000000000000000000000000000000000000000000043c33c1937564800000000000000000000000000000000000000000000000000000000000000000000100000000000000000000000000000000000000000000021e19e0c9bab2400000000000000000000000000000000000000000000000000000000000000000000000000000000000000000000000000000000000000000010f0cf064dd592000000000000000000000000000000000000000000000000000000000000000000000000000000000000000000000000000000000000000000000000000006912bc0c00000000000000000000000000000000000000000000000000000000693a490c0000000000000000000000000000000000000000000000000000000000000005302e312e30000000000000000000000000000000000000000000000000000000000000000000000000000000000000000000000000000000000000000000006000000000000000000000000000000000000000000000000000000000000000a00000000000000000000000000000000000000000000000000000000000000120000000000000000000000000000000000000000000000000000000000000001d45646765204578706572696d656e74205369676e616c7320426f617264000000000000000000000000000000000000000000000000000000000000000000004644656661756c7420626f617264206465706c6f796564207669612073637269707420666f72207468652045646765204578706572696d656e7420656e7669726f6e6d656e742e0000000000000000000000000000000000000000000000000000000000000000000000000000000000000000000000000000000000000000000000000000000000000000000000000000000000000000000000000000000000010000000000000000000000000000000000000000000000000cc47f20295c0000",
        "nonce": "0xac",
        "chainId": "0x14a34"
      },
      "additionalContracts": [
        {
          "transactionType": "CREATE",
          "contractName": null,
          "address": "0x45dd7216cf1bae2fb2689ceadd4391417eb36ff7",
          "initCode": "0x3d602d80600a3d3981f3363d3d373d3d3d363d739aef347e114b46c8a076601a380f382c3736657a5af43d82803e903d91602b57fd5bf3"
        }
      ],
      "isFixedGasLimit": false
    }
  ],
  "receipts": [
    {
      "status": "0x1",
      "cumulativeGasUsed": "0x72ddd3",
      "logs": [
        {
          "address": "0x45dd7216cf1bae2fb2689ceadd4391417eb36ff7",
          "topics": [
            "0x8be0079c531659141344cd1fd0a4f28419497f9722a3daafe3b4186f6b6457e0",
            "0x0000000000000000000000000000000000000000000000000000000000000000",
            "0x0000000000000000000000008dc791f24589f480ff31fe654d09bd01b5c5c2e8"
          ],
          "data": "0x",
          "blockHash": "0x51591421b827e8ac0fe1e553d1d905e539cc35ed72295b0325a04c49b7200f48",
          "blockNumber": "0x1ffae9b",
          "blockTimestamp": "0x6912bc16",
          "transactionHash": "0xa82328a3cf85b12f206dec54fcecc835bd85f027c845b5b6d2e4e2b2c45c3b45",
          "transactionIndex": "0x1c",
          "logIndex": "0xd9",
          "removed": false
        },
        {
          "address": "0x45dd7216cf1bae2fb2689ceadd4391417eb36ff7",
          "topics": [
            "0xc7f505b2f371ae2175ee4913f4499e1f2633a7b5936321eed1cdaeb6115181d2"
          ],
          "data": "0x0000000000000000000000000000000000000000000000000000000000000001",
          "blockHash": "0x51591421b827e8ac0fe1e553d1d905e539cc35ed72295b0325a04c49b7200f48",
          "blockNumber": "0x1ffae9b",
          "blockTimestamp": "0x6912bc16",
          "transactionHash": "0xa82328a3cf85b12f206dec54fcecc835bd85f027c845b5b6d2e4e2b2c45c3b45",
          "transactionIndex": "0x1c",
          "logIndex": "0xda",
          "removed": false
        },
        {
          "address": "0x68bea2216aad6733e5fb17f2bb121a0382f00e9f",
          "topics": [
            "0xe063f89784765bf082c1082796accd6c2e07337dfe1ebff08c2511999ff72ed7",
            "0x00000000000000000000000045dd7216cf1bae2fb2689ceadd4391417eb36ff7",
            "0x0000000000000000000000008dc791f24589f480ff31fe654d09bd01b5c5c2e8"
          ],
          "data": "0x0000000000000000000000000000000000000000000000000000000000000020000000000000000000000000000000000000000000000000000000000000006000000000000000000000000000000000000000000000000000000000000000a00000000000000000000000000000000000000000000000000000000000000120000000000000000000000000000000000000000000000000000000000000001d45646765204578706572696d656e74205369676e616c7320426f617264000000000000000000000000000000000000000000000000000000000000000000004644656661756c7420626f617264206465706c6f796564207669612073637269707420666f72207468652045646765204578706572696d656e7420656e7669726f6e6d656e742e00000000000000000000000000000000000000000000000000000000000000000000000000000000000000000000000000000000000000000000",
          "blockHash": "0x51591421b827e8ac0fe1e553d1d905e539cc35ed72295b0325a04c49b7200f48",
          "blockNumber": "0x1ffae9b",
          "blockTimestamp": "0x6912bc16",
          "transactionHash": "0xa82328a3cf85b12f206dec54fcecc835bd85f027c845b5b6d2e4e2b2c45c3b45",
          "transactionIndex": "0x1c",
          "logIndex": "0xdb",
          "removed": false
        }
      ],
      "logsBloom": "0x00000000000000000000000000000000000000000000000000800000000000000000000000000000000000000000080000000000000000000000000000000000000000000000000000000000000000010001000000000000000000002000000000000000020200000000000000000800000000080000000008000800000000400000400000004000000800000000000000000000000080004000000000000200000000000000000000000000000000000000000000000400000000000000000000000000000000000000000000000020000000000004000000000001000020000000000000000000000000000000000000000002000000000000000000000000",
      "type": "0x2",
      "transactionHash": "0xa82328a3cf85b12f206dec54fcecc835bd85f027c845b5b6d2e4e2b2c45c3b45",
      "transactionIndex": "0x1c",
      "blockHash": "0x51591421b827e8ac0fe1e553d1d905e539cc35ed72295b0325a04c49b7200f48",
      "blockNumber": "0x1ffae9b",
      "gasUsed": "0x83a6c",
      "effectiveGasPrice": "0xf42a2",
      "from": "0x8dc791f24589f480ff31fe654d09bd01b5c5c2e8",
      "to": "0x68bea2216aad6733e5fb17f2bb121a0382f00e9f",
      "contractAddress": null,
      "l1BaseFeeScalar": "0x44d",
      "l1BlobBaseFee": "0x1",
      "l1BlobBaseFeeScalar": "0xa118b",
      "l1Fee": "0x5c",
      "l1GasPrice": "0xf",
      "l1GasUsed": "0x1555"
    }
  ],
  "libraries": [],
  "pending": [],
  "returns": {},
  "timestamp": 1762835477775,
  "chain": 84532,
  "commit": "8fee1c0"
}