{
  "transactions": [
    {
      "hash": "0xff265756712eb2f98333965c18e931be31c3a216bb47e01d744ec9641a10aa5c",
      "transactionType": "CALL",
      "contractName": null,
      "contractAddress": "0xa6a55656a1d9faec4873e2e184b3ddd21cbc60a7",
      "function": "create((string,(string,string,(string,string,string)[]),address,address,(bool,bool,uint256,uint256),uint256,uint256,uint256,uint256[],uint256,(uint8,uint256,uint256,uint256),(uint8,uint256,uint256,uint256),uint256,uint256,uint256))",
      "arguments": [
        "(0.1.0, (Edge Experiment Signals Board, Default board deployed via script for the Edge Experiment environment., []), 0x8DC791f24589F480fF31Fe654D09bD01B5c5c2E8, 0x831e4D19D9fd1369f681596aFEa145B4E90E6859, (false, false, 250000000000000000, 1000000000000000000000000), 7, 86400, 1, [920000000000000000], 259200, (1, 10000000000000000000000, 0, 20000000000000000000000), (1, 10000000000000000000000, 0, 5000000000000000000000), 0, 1762385586, 1764977586)"
      ],
      "transaction": {
        "from": "0x8dc791f24589f480ff31fe654d09bd01b5c5c2e8",
        "to": "0xa6a55656a1d9faec4873e2e184b3ddd21cbc60a7",
        "gas": "0xe8104",
        "value": "0x0",
        "input": "0x6ba9d59f0000000000000000000000000000000000000000000000000000000000000020000000000000000000000000000000000000000000000000000000000000030000000000000000000000000000000000000000000000000000000000000003400000000000000000000000008dc791f24589f480ff31fe654d09bd01b5c5c2e8000000000000000000000000831e4d19d9fd1369f681596afea145b4e90e68590000000000000000000000000000000000000000000000000000000000000000000000000000000000000000000000000000000000000000000000000000000000000000000000000000000000000000000000000000000003782dace9d9000000000000000000000000000000000000000000000000d3c21bcecceda10000000000000000000000000000000000000000000000000000000000000000000007000000000000000000000000000000000000000000000000000000000001518000000000000000000000000000000000000000000000000000000000000000010000000000000000000000000000000000000000000000000000000000000480000000000000000000000000000000000000000000000000000000000003f480000000000000000000000000000000000000000000000000000000000000000100000000000000000000000000000000000000000000021e19e0c9bab2400000000000000000000000000000000000000000000000000000000000000000000000000000000000000000000000000000000000000000043c33c1937564800000000000000000000000000000000000000000000000000000000000000000000100000000000000000000000000000000000000000000021e19e0c9bab2400000000000000000000000000000000000000000000000000000000000000000000000000000000000000000000000000000000000000000010f0cf064dd59200000000000000000000000000000000000000000000000000000000000000000000000000000000000000000000000000000000000000000000000000000690bdeb20000000000000000000000000000000000000000000000000000000069336bb20000000000000000000000000000000000000000000000000000000000000005302e312e30000000000000000000000000000000000000000000000000000000000000000000000000000000000000000000000000000000000000000000006000000000000000000000000000000000000000000000000000000000000000a00000000000000000000000000000000000000000000000000000000000000120000000000000000000000000000000000000000000000000000000000000001d45646765204578706572696d656e74205369676e616c7320426f617264000000000000000000000000000000000000000000000000000000000000000000004644656661756c7420626f617264206465706c6f796564207669612073637269707420666f72207468652045646765204578706572696d656e7420656e7669726f6e6d656e742e0000000000000000000000000000000000000000000000000000000000000000000000000000000000000000000000000000000000000000000000000000000000000000000000000000000000000000000000000000000000010000000000000000000000000000000000000000000000000cc47f20295c0000",
        "nonce": "0x96",
        "chainId": "0x14a34"
      },
      "additionalContracts": [
        {
          "transactionType": "CREATE",
          "contractName": null,
          "address": "0xb894a0e103611c7194e9c40da3bcdefce7db91fb",
          "initCode": "0x3d602d80600a3d3981f3363d3d373d3d3d363d73efd7cf473e8da4ed8a978f1727b7dad746915df15af43d82803e903d91602b57fd5bf3"
        }
      ],
      "isFixedGasLimit": false
    }
  ],
  "receipts": [
    {
      "status": "0x1",
      "cumulativeGasUsed": "0xb3fd6",
      "logs": [
        {
          "address": "0xb894a0e103611c7194e9c40da3bcdefce7db91fb",
          "topics": [
            "0x8be0079c531659141344cd1fd0a4f28419497f9722a3daafe3b4186f6b6457e0",
            "0x0000000000000000000000000000000000000000000000000000000000000000",
            "0x0000000000000000000000008dc791f24589f480ff31fe654d09bd01b5c5c2e8"
          ],
          "data": "0x",
          "blockHash": "0xde64b7e0f345534b9c03c1065748f7389f6fd05b72a67d3b2989dd7aabfbbd80",
          "blockNumber": "0x1fc3fef",
          "blockTimestamp": "0x690bdebe",
          "transactionHash": "0xff265756712eb2f98333965c18e931be31c3a216bb47e01d744ec9641a10aa5c",
          "transactionIndex": "0x2",
          "logIndex": "0x1",
          "removed": false
        },
        {
          "address": "0xb894a0e103611c7194e9c40da3bcdefce7db91fb",
          "topics": [
            "0xc7f505b2f371ae2175ee4913f4499e1f2633a7b5936321eed1cdaeb6115181d2"
          ],
          "data": "0x0000000000000000000000000000000000000000000000000000000000000001",
          "blockHash": "0xde64b7e0f345534b9c03c1065748f7389f6fd05b72a67d3b2989dd7aabfbbd80",
          "blockNumber": "0x1fc3fef",
          "blockTimestamp": "0x690bdebe",
          "transactionHash": "0xff265756712eb2f98333965c18e931be31c3a216bb47e01d744ec9641a10aa5c",
          "transactionIndex": "0x2",
          "logIndex": "0x2",
          "removed": false
        },
        {
          "address": "0xa6a55656a1d9faec4873e2e184b3ddd21cbc60a7",
          "topics": [
            "0x2aa4a96264c8e02d5f1d410280ffce1a77c33c2c6ea4c6bd6f02ba5ecdf6778c",
            "0x000000000000000000000000b894a0e103611c7194e9c40da3bcdefce7db91fb",
            "0x0000000000000000000000008dc791f24589f480ff31fe654d09bd01b5c5c2e8"
          ],
          "data": "0x",
          "blockHash": "0xde64b7e0f345534b9c03c1065748f7389f6fd05b72a67d3b2989dd7aabfbbd80",
          "blockNumber": "0x1fc3fef",
          "blockTimestamp": "0x690bdebe",
          "transactionHash": "0xff265756712eb2f98333965c18e931be31c3a216bb47e01d744ec9641a10aa5c",
          "transactionIndex": "0x2",
          "logIndex": "0x3",
          "removed": false
        }
      ],
      "logsBloom": "0x00000000000000000000000000000000000000000000000000800008000000010000000000000000000000000000000000000000000000000100000000000000000000000000000000000000200000000001000000000000000000000000000000000000020000000008000000001800000000000000000000000800000000400000000000004000000802000004000000000000000080000000008000000000000000008000002000000000000000000000000000000000000000000000000000000000000000000000000000000000000000000004000000000001000020000000002000000000000000000000000000000000000000000000000000000000",
      "type": "0x2",
      "transactionHash": "0xff265756712eb2f98333965c18e931be31c3a216bb47e01d744ec9641a10aa5c",
      "transactionIndex": "0x2",
      "blockHash": "0xde64b7e0f345534b9c03c1065748f7389f6fd05b72a67d3b2989dd7aabfbbd80",
      "blockNumber": "0x1fc3fef",
      "gasUsed": "0x9ead1",
      "effectiveGasPrice": "0xf428a",
      "from": "0x8dc791f24589f480ff31fe654d09bd01b5c5c2e8",
      "to": "0xa6a55656a1d9faec4873e2e184b3ddd21cbc60a7",
      "contractAddress": null,
      "l1BaseFeeScalar": "0x44d",
      "l1BlobBaseFee": "0x1",
      "l1BlobBaseFeeScalar": "0xa118b",
      "l1Fee": "0x54",
      "l1GasPrice": "0x9",
      "l1GasUsed": "0x1555"
    }
  ],
  "libraries": [],
  "pending": [],
  "returns": {},
  "timestamp": 1762385596203,
  "chain": 84532,
  "commit": "481fd8b"
}