{
  "transactions": [
    {
      "hash": "0x984d821012b3a34f4dc930f2f9fcd1b1d8cd8ca6e402e1e6eb959f724ff1632e",
      "transactionType": "CALL",
      "contractName": null,
      "contractAddress": "0x86fc1db6271a1373798d0ce740989c9bf58be0c3",
      "function": "create((string,(string,string,(string,string,string)[]),address,address,(bool,bool,uint256,uint256),uint256,uint256,uint256,uint256[],uint256,(uint8,uint256,uint256,uint256),(uint8,uint256,uint256,uint256),uint256,uint256,uint256))",
      "arguments": [
        "(0.1.0, (Edge Experiment Signals Board, Default board deployed via script for the Edge Experiment environment., []), 0x8DC791f24589F480fF31Fe654D09bD01B5c5c2E8, 0x2158818709b478aFff21763495F22E33D7CfCCb4, (false, false, 250000000000000000, 1000000000000000000000000), 7, 86400, 1, [920000000000000000], 259200, (1, 10000000000000000000000, 0, 20000000000000000000000), (1, 10000000000000000000000, 0, 5000000000000000000000), 0, 1762794922, 1765386922)"
      ],
      "transaction": {
        "from": "0x8dc791f24589f480ff31fe654d09bd01b5c5c2e8",
        "to": "0x86fc1db6271a1373798d0ce740989c9bf58be0c3",
        "gas": "0xb5d7d",
        "value": "0x0",
        "input": "0x6ba9d59f0000000000000000000000000000000000000000000000000000000000000020000000000000000000000000000000000000000000000000000000000000030000000000000000000000000000000000000000000000000000000000000003400000000000000000000000008dc791f24589f480ff31fe654d09bd01b5c5c2e80000000000000000000000002158818709b478afff21763495f22e33d7cfccb40000000000000000000000000000000000000000000000000000000000000000000000000000000000000000000000000000000000000000000000000000000000000000000000000000000000000000000000000000000003782dace9d9000000000000000000000000000000000000000000000000d3c21bcecceda10000000000000000000000000000000000000000000000000000000000000000000007000000000000000000000000000000000000000000000000000000000001518000000000000000000000000000000000000000000000000000000000000000010000000000000000000000000000000000000000000000000000000000000480000000000000000000000000000000000000000000000000000000000003f480000000000000000000000000000000000000000000000000000000000000000100000000000000000000000000000000000000000000021e19e0c9bab2400000000000000000000000000000000000000000000000000000000000000000000000000000000000000000000000000000000000000000043c33c1937564800000000000000000000000000000000000000000000000000000000000000000000100000000000000000000000000000000000000000000021e19e0c9bab2400000000000000000000000000000000000000000000000000000000000000000000000000000000000000000000000000000000000000000010f0cf064dd5920000000000000000000000000000000000000000000000000000000000000000000000000000000000000000000000000000000000000000000000000000069121daa000000000000000000000000000000000000000000000000000000006939aaaa0000000000000000000000000000000000000000000000000000000000000005302e312e30000000000000000000000000000000000000000000000000000000000000000000000000000000000000000000000000000000000000000000006000000000000000000000000000000000000000000000000000000000000000a00000000000000000000000000000000000000000000000000000000000000120000000000000000000000000000000000000000000000000000000000000001d45646765204578706572696d656e74205369676e616c7320426f617264000000000000000000000000000000000000000000000000000000000000000000004644656661756c7420626f617264206465706c6f796564207669612073637269707420666f72207468652045646765204578706572696d656e7420656e7669726f6e6d656e742e0000000000000000000000000000000000000000000000000000000000000000000000000000000000000000000000000000000000000000000000000000000000000000000000000000000000000000000000000000000000010000000000000000000000000000000000000000000000000cc47f20295c0000",
        "nonce": "0x9c",
        "chainId": "0x14a34"
      },
      "additionalContracts": [
        {
          "transactionType": "CREATE",
          "contractName": null,
          "address": "0x54114542b52d2e2752cf1a33135e8a2d7117f84c",
          "initCode": "0x3d602d80600a3d3981f3363d3d373d3d3d363d73689ef9dbcc2e8bacbfe5fb5fea10f24a0a787d315af43d82803e903d91602b57fd5bf3"
        }
      ],
      "isFixedGasLimit": false
    }
  ],
  "receipts": [
    {
      "status": "0x1",
      "cumulativeGasUsed": "0x3c7df9",
      "logs": [
        {
          "address": "0x54114542b52d2e2752cf1a33135e8a2d7117f84c",
          "topics": [
            "0x8be0079c531659141344cd1fd0a4f28419497f9722a3daafe3b4186f6b6457e0",
            "0x0000000000000000000000000000000000000000000000000000000000000000",
            "0x0000000000000000000000008dc791f24589f480ff31fe654d09bd01b5c5c2e8"
          ],
          "data": "0x",
          "blockHash": "0xbe8e5cc0102140ec2867b75026604315d9927199dd45787429986e8e59b96b8b",
          "blockNumber": "0x1ff5f6c",
          "blockTimestamp": "0x69121db8",
          "transactionHash": "0x984d821012b3a34f4dc930f2f9fcd1b1d8cd8ca6e402e1e6eb959f724ff1632e",
          "transactionIndex": "0x3",
          "logIndex": "0x1",
          "removed": false
        },
        {
          "address": "0x54114542b52d2e2752cf1a33135e8a2d7117f84c",
          "topics": [
            "0xc7f505b2f371ae2175ee4913f4499e1f2633a7b5936321eed1cdaeb6115181d2"
          ],
          "data": "0x0000000000000000000000000000000000000000000000000000000000000001",
          "blockHash": "0xbe8e5cc0102140ec2867b75026604315d9927199dd45787429986e8e59b96b8b",
          "blockNumber": "0x1ff5f6c",
          "blockTimestamp": "0x69121db8",
          "transactionHash": "0x984d821012b3a34f4dc930f2f9fcd1b1d8cd8ca6e402e1e6eb959f724ff1632e",
          "transactionIndex": "0x3",
          "logIndex": "0x2",
          "removed": false
        },
        {
          "address": "0x86fc1db6271a1373798d0ce740989c9bf58be0c3",
          "topics": [
            "0xe063f89784765bf082c1082796accd6c2e07337dfe1ebff08c2511999ff72ed7",
            "0x00000000000000000000000054114542b52d2e2752cf1a33135e8a2d7117f84c",
            "0x0000000000000000000000008dc791f24589f480ff31fe654d09bd01b5c5c2e8"
          ],
          "data": "0x0000000000000000000000000000000000000000000000000000000000000020000000000000000000000000000000000000000000000000000000000000006000000000000000000000000000000000000000000000000000000000000000a00000000000000000000000000000000000000000000000000000000000000120000000000000000000000000000000000000000000000000000000000000001d45646765204578706572696d656e74205369676e616c7320426f617264000000000000000000000000000000000000000000000000000000000000000000004644656661756c7420626f617264206465706c6f796564207669612073637269707420666f72207468652045646765204578706572696d656e7420656e7669726f6e6d656e742e00000000000000000000000000000000000000000000000000000000000000000000000000000000000000000000000000000000000000000000",
          "blockHash": "0xbe8e5cc0102140ec2867b75026604315d9927199dd45787429986e8e59b96b8b",
          "blockNumber": "0x1ff5f6c",
          "blockTimestamp": "0x69121db8",
          "transactionHash": "0x984d821012b3a34f4dc930f2f9fcd1b1d8cd8ca6e402e1e6eb959f724ff1632e",
          "transactionIndex": "0x3",
          "logIndex": "0x3",
          "removed": false
        }
      ],
      "logsBloom": "0x00000000000000000000000000000000000000000000000000800000000000000000000100000000000000000200080000000000000000000000000000000000000000000000000000000000000000000001040000000001000000000000000000000000020000000000000000000800000000000000000008000800000000400000000000004000000800000000000000000000000080000020000000000200000000000000000000000000000000000000000000000000000008000000000000000000000000000000000000000000000000000004040000001001000020000000000000000000000000100000000000000000000000000000000000000000",
      "type": "0x2",
      "transactionHash": "0x984d821012b3a34f4dc930f2f9fcd1b1d8cd8ca6e402e1e6eb959f724ff1632e",
      "transactionIndex": "0x3",
      "blockHash": "0xbe8e5cc0102140ec2867b75026604315d9927199dd45787429986e8e59b96b8b",
      "blockNumber": "0x1ff5f6c",
      "gasUsed": "0x83a6c",
      "effectiveGasPrice": "0xf2c8f",
      "from": "0x8dc791f24589f480ff31fe654d09bd01b5c5c2e8",
      "to": "0x86fc1db6271a1373798d0ce740989c9bf58be0c3",
      "contractAddress": null,
      "l1BaseFeeScalar": "0x44d",
      "l1BlobBaseFee": "0x1",
      "l1BlobBaseFeeScalar": "0xa118b",
      "l1Fee": "0x53",
      "l1GasPrice": "0xa",
      "l1GasUsed": "0x1555"
    }
  ],
  "libraries": [],
  "pending": [],
  "returns": {},
  "timestamp": 1762794934378,
  "chain": 84532,
  "commit": "e383431"
}