{
  "transactions": [
    {
      "hash": "0x6aac2d61d0f779d086e415dd707af03af45221880de2ec9f18f423733528a92e",
      "transactionType": "CALL",
      "contractName": null,
      "contractAddress": "0x1e6b84cdd0ea0e4b26bdac857c5edfc47fc5627a",
      "function": null,
      "arguments": null,
      "transaction": {
        "from": "0x8dc791f24589f480ff31fe654d09bd01b5c5c2e8",
        "to": "0x1e6b84cdd0ea0e4b26bdac857c5edfc47fc5627a",
        "gas": "0x8450",
        "value": "0x16345785d8a0000",
        "input": "0x",
        "nonce": "0x3d",
        "chainId": "0x66eee"
      },
      "additionalContracts": [],
      "isFixedGasLimit": false
    },
    {
      "hash": "0x7d7c5daa9434af0946b79d658c2bc89d082a85d8413ac0b14d2699879314eba8",
      "transactionType": "CALL",
      "contractName": null,
      "contractAddress": "0x3203b666cc57189bbc81823d49aaa553bbc241d2",
      "function": null,
      "arguments": null,
      "transaction": {
        "from": "0x8dc791f24589f480ff31fe654d09bd01b5c5c2e8",
        "to": "0x3203b666cc57189bbc81823d49aaa553bbc241d2",
        "gas": "0x8450",
        "value": "0x16345785d8a0000",
        "input": "0x",
        "nonce": "0x3e",
        "chainId": "0x66eee"
      },
      "additionalContracts": [],
      "isFixedGasLimit": false
    },
    {
      "hash": "0x05329820328288c15d57d0f58f1bd04c4ee179bfb00494708317e16498da410b",
      "transactionType": "CALL",
      "contractName": null,
      "contractAddress": "0x4147bfbc809baa168fa9375ce7d48d84eb27146b",
      "function": null,
      "arguments": null,
      "transaction": {
        "from": "0x8dc791f24589f480ff31fe654d09bd01b5c5c2e8",
        "to": "0x4147bfbc809baa168fa9375ce7d48d84eb27146b",
        "gas": "0x8450",
        "value": "0x16345785d8a0000",
        "input": "0x",
        "nonce": "0x3f",
        "chainId": "0x66eee"
      },
      "additionalContracts": [],
      "isFixedGasLimit": false
    },
    {
      "hash": "0x24b604500b8fe796610f0dd2e1585b50641749891dec91be527c41ae4ebd3143",
      "transactionType": "CALL",
      "contractName": null,
      "contractAddress": "0x26d04e0d3050b7b11054b5a48639d1fe88aa7be7",
      "function": "approve(address,uint256)",
      "arguments": [
        "0x844C0DD2995cD430AaB7Ddd1DCa3FB15836674bc",
        "10000000000000000000000"
      ],
      "transaction": {
        "from": "0x1e6b84cdd0ea0e4b26bdac857c5edfc47fc5627a",
        "to": "0x26d04e0d3050b7b11054b5a48639d1fe88aa7be7",
        "gas": "0x10f2f",
        "value": "0x0",
        "input": "0x095ea7b3000000000000000000000000844c0dd2995cd430aab7ddd1dca3fb15836674bc00000000000000000000000000000000000000000000021e19e0c9bab2400000",
        "nonce": "0x0",
        "chainId": "0x66eee"
      },
      "additionalContracts": [],
      "isFixedGasLimit": false
    },
    {
      "hash": "0xf502f31fbaa53c8d3fa26bd7e6031c80bb56abfb05e25ed33a6f1e2306f09602",
      "transactionType": "CALL",
      "contractName": null,
      "contractAddress": "0x844c0dd2995cd430aab7ddd1dca3fb15836674bc",
      "function": "proposeInitiativeWithLock(string,string,uint256,uint256)",
      "arguments": [
        "Implement Governance Updates #0",
        "This proposal aims to improve the current governance structure...\\n\\nProposal ID: 0\\nSubmitted as part of the test dataset",
        "10000000000000000000000",
        "12"
      ],
      "transaction": {
        "from": "0x1e6b84cdd0ea0e4b26bdac857c5edfc47fc5627a",
        "to": "0x844c0dd2995cd430aab7ddd1dca3fb15836674bc",
        "gas": "0xe9918",
        "value": "0x0",
        "input": "0x883c7396000000000000000000000000000000000000000000000000000000000000008000000000000000000000000000000000000000000000000000000000000000c000000000000000000000000000000000000000000000021e19e0c9bab2400000000000000000000000000000000000000000000000000000000000000000000c000000000000000000000000000000000000000000000000000000000000001f496d706c656d656e7420476f7665726e616e63652055706461746573202330000000000000000000000000000000000000000000000000000000000000000077546869732070726f706f73616c2061696d7320746f20696d70726f7665207468652063757272656e7420676f7665726e616e6365207374727563747572652e2e2e0a0a50726f706f73616c2049443a20300a5375626d69747465642061732070617274206f662074686520746573742064617461736574000000000000000000",
        "nonce": "0x1",
        "chainId": "0x66eee"
      },
      "additionalContracts": [],
      "isFixedGasLimit": false
    },
    {
      "hash": "0x487f32de916bb2f88fea0e764fee714d572aab56f1c8b6770396a02c967b0eaa",
      "transactionType": "CALL",
      "contractName": null,
      "contractAddress": "0x26d04e0d3050b7b11054b5a48639d1fe88aa7be7",
      "function": "transfer(address,uint256)",
      "arguments": [
        "0x3203b666CC57189BBc81823d49aAA553BBc241D2",
        "39999600000000000000000"
      ],
      "transaction": {
        "from": "0x8dc791f24589f480ff31fe654d09bd01b5c5c2e8",
        "to": "0x26d04e0d3050b7b11054b5a48639d1fe88aa7be7",
        "gas": "0xd135",
        "value": "0x0",
        "input": "0xa9059cbb0000000000000000000000003203b666cc57189bbc81823d49aaa553bbc241d200000000000000000000000000000000000000000000087861f6110952d80000",
        "nonce": "0x40",
        "chainId": "0x66eee"
      },
      "additionalContracts": [],
      "isFixedGasLimit": false
    },
    {
      "hash": "0xebcf3fce1c8f9d93f30f1a4fbba19ea2834f07a04c9fff1e383c4434e50e91cd",
      "transactionType": "CALL",
      "contractName": null,
      "contractAddress": "0x26d04e0d3050b7b11054b5a48639d1fe88aa7be7",
      "function": "approve(address,uint256)",
      "arguments": [
        "0x844C0DD2995cD430AaB7Ddd1DCa3FB15836674bc",
        "10000000000000000000000"
      ],
      "transaction": {
        "from": "0x3203b666cc57189bbc81823d49aaa553bbc241d2",
        "to": "0x26d04e0d3050b7b11054b5a48639d1fe88aa7be7",
        "gas": "0x10f2f",
        "value": "0x0",
        "input": "0x095ea7b3000000000000000000000000844c0dd2995cd430aab7ddd1dca3fb15836674bc00000000000000000000000000000000000000000000021e19e0c9bab2400000",
        "nonce": "0x0",
        "chainId": "0x66eee"
      },
      "additionalContracts": [],
      "isFixedGasLimit": false
    },
    {
      "hash": "0xd6d8cf52c3a0c59ba56557e2ef5b0df104a59fa43158c335b4c2eb3f62695723",
      "transactionType": "CALL",
      "contractName": null,
      "contractAddress": "0x844c0dd2995cd430aab7ddd1dca3fb15836674bc",
      "function": "proposeInitiativeWithLock(string,string,uint256,uint256)",
      "arguments": [
        "Treasury Allocation Proposal #1",
        "A strategic allocation of treasury funds for sustainable growth...\\n\\nProposal ID: 1\\nSubmitted as part of the test dataset",
        "10000000000000000000000",
        "12"
      ],
      "transaction": {
        "from": "0x3203b666cc57189bbc81823d49aaa553bbc241d2",
        "to": "0x844c0dd2995cd430aab7ddd1dca3fb15836674bc",
        "gas": "0xec19b",
        "value": "0x0",
        "input": "0x883c7396000000000000000000000000000000000000000000000000000000000000008000000000000000000000000000000000000000000000000000000000000000c000000000000000000000000000000000000000000000021e19e0c9bab2400000000000000000000000000000000000000000000000000000000000000000000c000000000000000000000000000000000000000000000000000000000000001f547265617375727920416c6c6f636174696f6e2050726f706f73616c202331000000000000000000000000000000000000000000000000000000000000000078412073747261746567696320616c6c6f636174696f6e206f662074726561737572792066756e647320666f72207375737461696e61626c652067726f7774682e2e2e0a0a50726f706f73616c2049443a20310a5375626d69747465642061732070617274206f6620746865207465737420646174617365740000000000000000",
        "nonce": "0x1",
        "chainId": "0x66eee"
      },
      "additionalContracts": [],
      "isFixedGasLimit": false
    },
    {
      "hash": "0x2c474fef6d8ebd1cc3790f2135cf9b8d1dfd53a2d5230e98ec5652ae617b9599",
      "transactionType": "CALL",
      "contractName": null,
      "contractAddress": "0x26d04e0d3050b7b11054b5a48639d1fe88aa7be7",
      "function": "transfer(address,uint256)",
      "arguments": [
        "0x4147bfbC809baa168fA9375ce7D48d84eB27146B",
        "39999600000000000000000"
      ],
      "transaction": {
        "from": "0x8dc791f24589f480ff31fe654d09bd01b5c5c2e8",
        "to": "0x26d04e0d3050b7b11054b5a48639d1fe88aa7be7",
        "gas": "0xd135",
        "value": "0x0",
        "input": "0xa9059cbb0000000000000000000000004147bfbc809baa168fa9375ce7d48d84eb27146b00000000000000000000000000000000000000000000087861f6110952d80000",
        "nonce": "0x41",
        "chainId": "0x66eee"
      },
      "additionalContracts": [],
      "isFixedGasLimit": false
    },
    {
      "hash": "0xfb42a580f2b7291041941c5da032bf88bfaeea1f1662a6132e832dc60f700c42",
      "transactionType": "CALL",
      "contractName": null,
      "contractAddress": "0x26d04e0d3050b7b11054b5a48639d1fe88aa7be7",
      "function": "approve(address,uint256)",
      "arguments": [
        "0x844C0DD2995cD430AaB7Ddd1DCa3FB15836674bc",
        "10000000000000000000000"
      ],
      "transaction": {
        "from": "0x4147bfbc809baa168fa9375ce7d48d84eb27146b",
        "to": "0x26d04e0d3050b7b11054b5a48639d1fe88aa7be7",
        "gas": "0x10f2f",
        "value": "0x0",
        "input": "0x095ea7b3000000000000000000000000844c0dd2995cd430aab7ddd1dca3fb15836674bc00000000000000000000000000000000000000000000021e19e0c9bab2400000",
        "nonce": "0x0",
        "chainId": "0x66eee"
      },
      "additionalContracts": [],
      "isFixedGasLimit": false
    },
    {
      "hash": "0x4c0baee960faf90913a7fa428471b0cfd5200b23bcbb8d7aa9708235bb6225fd",
      "transactionType": "CALL",
      "contractName": null,
      "contractAddress": "0x844c0dd2995cd430aab7ddd1dca3fb15836674bc",
      "function": "proposeInitiativeWithLock(string,string,uint256,uint256)",
      "arguments": [
        "Community Development Fund #2",
        "Creating a dedicated fund for community-driven development...\\n\\nProposal ID: 2\\nSubmitted as part of the test dataset",
        "10000000000000000000000",
        "12"
      ],
      "transaction": {
        "from": "0x4147bfbc809baa168fa9375ce7d48d84eb27146b",
        "to": "0x844c0dd2995cd430aab7ddd1dca3fb15836674bc",
        "gas": "0xdef49",
        "value": "0x0",
        "input": "0x883c7396000000000000000000000000000000000000000000000000000000000000008000000000000000000000000000000000000000000000000000000000000000c000000000000000000000000000000000000000000000021e19e0c9bab2400000000000000000000000000000000000000000000000000000000000000000000c000000000000000000000000000000000000000000000000000000000000001d436f6d6d756e69747920446576656c6f706d656e742046756e6420233200000000000000000000000000000000000000000000000000000000000000000000734372656174696e672061206465646963617465642066756e6420666f7220636f6d6d756e6974792d64726976656e20646576656c6f706d656e742e2e2e0a0a50726f706f73616c2049443a20320a5375626d69747465642061732070617274206f66207468652074657374206461746173657400000000000000000000000000",
        "nonce": "0x1",
        "chainId": "0x66eee"
      },
      "additionalContracts": [],
      "isFixedGasLimit": false
    }
  ],
  "receipts": [
    {
      "status": "0x1",
      "cumulativeGasUsed": "0x5f4a",
      "logs": [],
      "logsBloom": "0x00000000000000000000000000000000000000000000000000000000000000000000000000000000000000000000000000000000000000000000000000000000000000000000000000000000000000000000000000000000000000000000000000000000000000000000000000000000000000000000000000000000000000000000000000000000000000000000000000000000000000000000000000000000000000000000000000000000000000000000000000000000000000000000000000000000000000000000000000000000000000000000000000000000000000000000000000000000000000000000000000000000000000000000000000000000",
      "type": "0x2",
      "transactionHash": "0x6aac2d61d0f779d086e415dd707af03af45221880de2ec9f18f423733528a92e",
      "transactionIndex": "0x1",
      "blockHash": "0xcae79811ad31ea98a2e3a31793b960ead082c6eaa64e67c09ecd8d8bf138b109",
      "blockNumber": "0x8043ffc",
      "gasUsed": "0x5f4a",
      "effectiveGasPrice": "0x5f5e100",
      "from": "0x8dc791f24589f480ff31fe654d09bd01b5c5c2e8",
      "to": "0x1e6b84cdd0ea0e4b26bdac857c5edfc47fc5627a",
      "contractAddress": null,
      "gasUsedForL1": "0xd42",
      "l1BlockNumber": "0x7950b0"
    },
    {
      "status": "0x1",
      "cumulativeGasUsed": "0x5f4a",
      "logs": [],
      "logsBloom": "0x00000000000000000000000000000000000000000000000000000000000000000000000000000000000000000000000000000000000000000000000000000000000000000000000000000000000000000000000000000000000000000000000000000000000000000000000000000000000000000000000000000000000000000000000000000000000000000000000000000000000000000000000000000000000000000000000000000000000000000000000000000000000000000000000000000000000000000000000000000000000000000000000000000000000000000000000000000000000000000000000000000000000000000000000000000000",
      "type": "0x2",
      "transactionHash": "0x7d7c5daa9434af0946b79d658c2bc89d082a85d8413ac0b14d2699879314eba8",
      "transactionIndex": "0x1",
      "blockHash": "0xf70b6b66e8be2fd5ee63420edd5fb9f0af5e84a49bafe43ba57191f880bd6e98",
      "blockNumber": "0x8044000",
      "gasUsed": "0x5f4a",
      "effectiveGasPrice": "0x5f5e100",
      "from": "0x8dc791f24589f480ff31fe654d09bd01b5c5c2e8",
      "to": "0x3203b666cc57189bbc81823d49aaa553bbc241d2",
      "contractAddress": null,
      "gasUsedForL1": "0xd42",
      "l1BlockNumber": "0x7950b0"
    },
    {
      "status": "0x1",
      "cumulativeGasUsed": "0x12acc",
      "logs": [],
      "logsBloom": "0x00000000000000000000000000000000000000000000000000000000000000000000000000000000000000000000000000000000000000000000000000000000000000000000000000000000000000000000000000000000000000000000000000000000000000000000000000000000000000000000000000000000000000000000000000000000000000000000000000000000000000000000000000000000000000000000000000000000000000000000000000000000000000000000000000000000000000000000000000000000000000000000000000000000000000000000000000000000000000000000000000000000000000000000000000000000",
      "type": "0x2",
      "transactionHash": "0x05329820328288c15d57d0f58f1bd04c4ee179bfb00494708317e16498da410b",
      "transactionIndex": "0x2",
      "blockHash": "0xe54c18742c655f9e5192ca14cd3215203c4a87a9b448fa7af43b66ea8aaad462",
      "blockNumber": "0x8044004",
      "gasUsed": "0x5f4a",
      "effectiveGasPrice": "0x5f5e100",
      "from": "0x8dc791f24589f480ff31fe654d09bd01b5c5c2e8",
      "to": "0x4147bfbc809baa168fa9375ce7d48d84eb27146b",
      "contractAddress": null,
      "gasUsedForL1": "0xd42",
      "l1BlockNumber": "0x7950b0"
    },
    {
      "status": "0x1",
      "cumulativeGasUsed": "0xc7ba",
      "logs": [
        {
          "address": "0x26d04e0d3050b7b11054b5a48639d1fe88aa7be7",
          "topics": [
            "0x8c5be1e5ebec7d5bd14f71427d1e84f3dd0314c0f7b2291e5b200ac8c7c3b925",
            "0x0000000000000000000000001e6b84cdd0ea0e4b26bdac857c5edfc47fc5627a",
            "0x000000000000000000000000844c0dd2995cd430aab7ddd1dca3fb15836674bc"
          ],
          "data": "0x00000000000000000000000000000000000000000000021e19e0c9bab2400000",
          "blockHash": "0xe9694a5994dea2e5c32c755978049a881e84dda2bf3ddce131dc8f11c64ab804",
          "blockNumber": "0x8044006",
          "transactionHash": "0x24b604500b8fe796610f0dd2e1585b50641749891dec91be527c41ae4ebd3143",
          "transactionIndex": "0x1",
          "logIndex": "0x0",
          "removed": false
        }
      ],
      "logsBloom": "0x00000000000000000000000000000000000000000000000000000000000000000000000000000000000000000000040000000800000000000000000000200000000000000000000000000000000000000020000000000000000000000000000000000000000400000000000000000000000000000000000000000000000000000000000000000000000000000000000000000000000000000800000000000000020000000200000040000000000000000000000000000000000000000000000000000000000000002000000000000000000400000000000000000000000000000010000000000000000000000000000000000000000000000000000000000000",
      "type": "0x2",
      "transactionHash": "0x24b604500b8fe796610f0dd2e1585b50641749891dec91be527c41ae4ebd3143",
      "transactionIndex": "0x1",
      "blockHash": "0xe9694a5994dea2e5c32c755978049a881e84dda2bf3ddce131dc8f11c64ab804",
      "blockNumber": "0x8044006",
      "gasUsed": "0xc7ba",
      "effectiveGasPrice": "0x5f5e100",
      "from": "0x1e6b84cdd0ea0e4b26bdac857c5edfc47fc5627a",
      "to": "0x26d04e0d3050b7b11054b5a48639d1fe88aa7be7",
      "contractAddress": null,
      "gasUsedForL1": "0x141d",
      "l1BlockNumber": "0x7950b0"
    },
    {
      "status": "0x1",
      "cumulativeGasUsed": "0xabb24",
      "logs": [
        {
          "address": "0x844c0dd2995cd430aab7ddd1dca3fb15836674bc",
          "topics": [
            "0x39b35db192ce609adcab6c4cb18960e39d6af29bb28ea22aa4f3b56defa0595a",
            "0x0000000000000000000000000000000000000000000000000000000000000001",
            "0x0000000000000000000000001e6b84cdd0ea0e4b26bdac857c5edfc47fc5627a"
          ],
          "data": "0x00000000000000000000000000000000000000000000000000000000000000400000000000000000000000000000000000000000000000000000000000000080000000000000000000000000000000000000000000000000000000000000001f496d706c656d656e7420476f7665726e616e63652055706461746573202330000000000000000000000000000000000000000000000000000000000000000077546869732070726f706f73616c2061696d7320746f20696d70726f7665207468652063757272656e7420676f7665726e616e6365207374727563747572652e2e2e0a0a50726f706f73616c2049443a20300a5375626d69747465642061732070617274206f662074686520746573742064617461736574000000000000000000",
          "blockHash": "0x4787f2ed57bdbedae5dbf9a42f74408b91d7897e0c509d7459f599bbf5c84c5b",
          "blockNumber": "0x804400b",
          "transactionHash": "0xf502f31fbaa53c8d3fa26bd7e6031c80bb56abfb05e25ed33a6f1e2306f09602",
          "transactionIndex": "0x1",
          "logIndex": "0x0",
          "removed": false
        },
        {
          "address": "0x26d04e0d3050b7b11054b5a48639d1fe88aa7be7",
          "topics": [
            "0xddf252ad1be2c89b69c2b068fc378daa952ba7f163c4a11628f55a4df523b3ef",
            "0x0000000000000000000000001e6b84cdd0ea0e4b26bdac857c5edfc47fc5627a",
            "0x000000000000000000000000844c0dd2995cd430aab7ddd1dca3fb15836674bc"
          ],
          "data": "0x00000000000000000000000000000000000000000000021e19e0c9bab2400000",
          "blockHash": "0x4787f2ed57bdbedae5dbf9a42f74408b91d7897e0c509d7459f599bbf5c84c5b",
          "blockNumber": "0x804400b",
          "transactionHash": "0xf502f31fbaa53c8d3fa26bd7e6031c80bb56abfb05e25ed33a6f1e2306f09602",
          "transactionIndex": "0x1",
          "logIndex": "0x1",
          "removed": false
        },
        {
          "address": "0x844c0dd2995cd430aab7ddd1dca3fb15836674bc",
          "topics": [
            "0xddf252ad1be2c89b69c2b068fc378daa952ba7f163c4a11628f55a4df523b3ef",
            "0x0000000000000000000000000000000000000000000000000000000000000000",
            "0x0000000000000000000000001e6b84cdd0ea0e4b26bdac857c5edfc47fc5627a",
            "0x0000000000000000000000000000000000000000000000000000000000000001"
          ],
          "data": "0x",
          "blockHash": "0x4787f2ed57bdbedae5dbf9a42f74408b91d7897e0c509d7459f599bbf5c84c5b",
          "blockNumber": "0x804400b",
          "transactionHash": "0xf502f31fbaa53c8d3fa26bd7e6031c80bb56abfb05e25ed33a6f1e2306f09602",
          "transactionIndex": "0x1",
          "logIndex": "0x2",
          "removed": false
        },
        {
          "address": "0x844c0dd2995cd430aab7ddd1dca3fb15836674bc",
          "topics": [
            "0xe1cc09c2084c21964d00393620b6707be6e6d3c23c53ed2e105d641d0e583f0f",
            "0x0000000000000000000000000000000000000000000000000000000000000001",
            "0x0000000000000000000000001e6b84cdd0ea0e4b26bdac857c5edfc47fc5627a"
          ],
          "data": "0x00000000000000000000000000000000000000000000021e19e0c9bab2400000000000000000000000000000000000000000000000000000000000000000000c0000000000000000000000000000000000000000000000000000000067dd8e80",
          "blockHash": "0x4787f2ed57bdbedae5dbf9a42f74408b91d7897e0c509d7459f599bbf5c84c5b",
          "blockNumber": "0x804400b",
          "transactionHash": "0xf502f31fbaa53c8d3fa26bd7e6031c80bb56abfb05e25ed33a6f1e2306f09602",
          "transactionIndex": "0x1",
          "logIndex": "0x3",
          "removed": false
        }
      ],
      "logsBloom": "0x00000000000000000000000020000000000000000000000000000000200000000000000000080000000000000000040100000800008000000000000000040000000000000000000000000008000000000020000000040000000000000000000000000000020400000000000000000800000000000000000000000010000004000000000000000000000000000000000000000000000000000800000000000000000000000200000040000000000000000100000000000000000000000000000000000002000000002000000000000000000400000000000000000000000060004000000000000000000000800000000000000000000000000000000000000000",
      "type": "0x2",
      "transactionHash": "0xf502f31fbaa53c8d3fa26bd7e6031c80bb56abfb05e25ed33a6f1e2306f09602",
      "transactionIndex": "0x1",
      "blockHash": "0x4787f2ed57bdbedae5dbf9a42f74408b91d7897e0c509d7459f599bbf5c84c5b",
      "blockNumber": "0x804400b",
      "gasUsed": "0xabb24",
      "effectiveGasPrice": "0x5f5e100",
      "from": "0x1e6b84cdd0ea0e4b26bdac857c5edfc47fc5627a",
      "to": "0x844c0dd2995cd430aab7ddd1dca3fb15836674bc",
      "contractAddress": null,
      "gasUsedForL1": "0x298d",
      "l1BlockNumber": "0x7950b0"
    },
    {
      "status": "0x1",
      "cumulativeGasUsed": "0x95f30",
      "logs": [
        {
          "address": "0x26d04e0d3050b7b11054b5a48639d1fe88aa7be7",
          "topics": [
            "0xddf252ad1be2c89b69c2b068fc378daa952ba7f163c4a11628f55a4df523b3ef",
            "0x0000000000000000000000008dc791f24589f480ff31fe654d09bd01b5c5c2e8",
            "0x0000000000000000000000003203b666cc57189bbc81823d49aaa553bbc241d2"
          ],
          "data": "0x00000000000000000000000000000000000000000000087861f6110952d80000",
          "blockHash": "0x87ebaa0e7b663e34e440a8a560e1ff3062e99947794d34f45e38d6f0c3f1de35",
          "blockNumber": "0x804400e",
          "transactionHash": "0x487f32de916bb2f88fea0e764fee714d572aab56f1c8b6770396a02c967b0eaa",
          "transactionIndex": "0x6",
          "logIndex": "0xa",
          "removed": false
        }
      ],
      "logsBloom": "0x00000000000000000000000000000000000000000000000000000000001000000000000000000000000000000000000000000000000000000000000000000000000000000000000000000008000000000000000000000000000000000000000000000000000000000000000000000000000000000000000000000810000000000000000000004000000000000000000000000000000000000800000000000000000000000000000040000001000000000000000000000000000000000000000000000002000000002000000000000000000000000000020000000001000000000000000000000000000000000000000000000000000000000000000000000000",
      "type": "0x2",
      "transactionHash": "0x487f32de916bb2f88fea0e764fee714d572aab56f1c8b6770396a02c967b0eaa",
      "transactionIndex": "0x6",
      "blockHash": "0x87ebaa0e7b663e34e440a8a560e1ff3062e99947794d34f45e38d6f0c3f1de35",
      "blockNumber": "0x804400e",
      "gasUsed": "0x9994",
      "effectiveGasPrice": "0x5f5e100",
      "from": "0x8dc791f24589f480ff31fe654d09bd01b5c5c2e8",
      "to": "0x26d04e0d3050b7b11054b5a48639d1fe88aa7be7",
      "contractAddress": null,
      "gasUsedForL1": "0x1400",
      "l1BlockNumber": "0x7950b0"
    },
    {
      "status": "0x1",
      "cumulativeGasUsed": "0xc7ba",
      "logs": [
        {
          "address": "0x26d04e0d3050b7b11054b5a48639d1fe88aa7be7",
          "topics": [
            "0x8c5be1e5ebec7d5bd14f71427d1e84f3dd0314c0f7b2291e5b200ac8c7c3b925",
            "0x0000000000000000000000003203b666cc57189bbc81823d49aaa553bbc241d2",
            "0x000000000000000000000000844c0dd2995cd430aab7ddd1dca3fb15836674bc"
          ],
          "data": "0x00000000000000000000000000000000000000000000021e19e0c9bab2400000",
          "blockHash": "0xe99726fe1aaa055ab1ce7aa522ced67d958ef78eba966d897a4ec8f9fc121d96",
          "blockNumber": "0x8044019",
          "transactionHash": "0xebcf3fce1c8f9d93f30f1a4fbba19ea2834f07a04c9fff1e383c4434e50e91cd",
          "transactionIndex": "0x1",
          "logIndex": "0x0",
          "removed": false
        }
      ],
      "logsBloom": "0x00000000000000000000000000000000000000000000000000000000001000000000000000000000000000000000040000000000000000000000000000200000000000000000000000000000000000000000000000000000000000000000000000000000000000000000000000000000000000000000000000000000000000000000000000000000000000000000000000000000000000000800000000000000020000000200000040000001000000000000000000000000000000000000000000000000000000002000000000000000000400000000020000000000000000000010000000000000000000000000000000000000000000000000000000000000",
      "type": "0x2",
      "transactionHash": "0xebcf3fce1c8f9d93f30f1a4fbba19ea2834f07a04c9fff1e383c4434e50e91cd",
      "transactionIndex": "0x1",
      "blockHash": "0xe99726fe1aaa055ab1ce7aa522ced67d958ef78eba966d897a4ec8f9fc121d96",
      "blockNumber": "0x8044019",
      "gasUsed": "0xc7ba",
      "effectiveGasPrice": "0x5f5e100",
      "from": "0x3203b666cc57189bbc81823d49aaa553bbc241d2",
      "to": "0x26d04e0d3050b7b11054b5a48639d1fe88aa7be7",
      "contractAddress": null,
      "gasUsedForL1": "0x141d",
      "l1BlockNumber": "0x7950b0"
    },
    {
      "status": "0x1",
      "cumulativeGasUsed": "0xa3fa6",
      "logs": [
        {
          "address": "0x844c0dd2995cd430aab7ddd1dca3fb15836674bc",
          "topics": [
            "0x39b35db192ce609adcab6c4cb18960e39d6af29bb28ea22aa4f3b56defa0595a",
            "0x0000000000000000000000000000000000000000000000000000000000000002",
            "0x0000000000000000000000003203b666cc57189bbc81823d49aaa553bbc241d2"
          ],
          "data": "0x00000000000000000000000000000000000000000000000000000000000000400000000000000000000000000000000000000000000000000000000000000080000000000000000000000000000000000000000000000000000000000000001f547265617375727920416c6c6f636174696f6e2050726f706f73616c202331000000000000000000000000000000000000000000000000000000000000000078412073747261746567696320616c6c6f636174696f6e206f662074726561737572792066756e647320666f72207375737461696e61626c652067726f7774682e2e2e0a0a50726f706f73616c2049443a20310a5375626d69747465642061732070617274206f6620746865207465737420646174617365740000000000000000",
          "blockHash": "0xdf49debe8630458aa10ff222fa23b7383a0135c96511c51f53a04f241d70e51e",
          "blockNumber": "0x804401d",
          "transactionHash": "0xd6d8cf52c3a0c59ba56557e2ef5b0df104a59fa43158c335b4c2eb3f62695723",
          "transactionIndex": "0x1",
          "logIndex": "0x0",
          "removed": false
        },
        {
          "address": "0x26d04e0d3050b7b11054b5a48639d1fe88aa7be7",
          "topics": [
            "0xddf252ad1be2c89b69c2b068fc378daa952ba7f163c4a11628f55a4df523b3ef",
            "0x0000000000000000000000003203b666cc57189bbc81823d49aaa553bbc241d2",
            "0x000000000000000000000000844c0dd2995cd430aab7ddd1dca3fb15836674bc"
          ],
          "data": "0x00000000000000000000000000000000000000000000021e19e0c9bab2400000",
          "blockHash": "0xdf49debe8630458aa10ff222fa23b7383a0135c96511c51f53a04f241d70e51e",
          "blockNumber": "0x804401d",
          "transactionHash": "0xd6d8cf52c3a0c59ba56557e2ef5b0df104a59fa43158c335b4c2eb3f62695723",
          "transactionIndex": "0x1",
          "logIndex": "0x1",
          "removed": false
        },
        {
          "address": "0x844c0dd2995cd430aab7ddd1dca3fb15836674bc",
          "topics": [
            "0xddf252ad1be2c89b69c2b068fc378daa952ba7f163c4a11628f55a4df523b3ef",
            "0x0000000000000000000000000000000000000000000000000000000000000000",
            "0x0000000000000000000000003203b666cc57189bbc81823d49aaa553bbc241d2",
            "0x0000000000000000000000000000000000000000000000000000000000000002"
          ],
          "data": "0x",
          "blockHash": "0xdf49debe8630458aa10ff222fa23b7383a0135c96511c51f53a04f241d70e51e",
          "blockNumber": "0x804401d",
          "transactionHash": "0xd6d8cf52c3a0c59ba56557e2ef5b0df104a59fa43158c335b4c2eb3f62695723",
          "transactionIndex": "0x1",
          "logIndex": "0x2",
          "removed": false
        },
        {
          "address": "0x844c0dd2995cd430aab7ddd1dca3fb15836674bc",
          "topics": [
            "0xe1cc09c2084c21964d00393620b6707be6e6d3c23c53ed2e105d641d0e583f0f",
            "0x0000000000000000000000000000000000000000000000000000000000000002",
            "0x0000000000000000000000003203b666cc57189bbc81823d49aaa553bbc241d2"
          ],
          "data": "0x00000000000000000000000000000000000000000000021e19e0c9bab2400000000000000000000000000000000000000000000000000000000000000000000c0000000000000000000000000000000000000000000000000000000067dd8e85",
          "blockHash": "0xdf49debe8630458aa10ff222fa23b7383a0135c96511c51f53a04f241d70e51e",
          "blockNumber": "0x804401d",
          "transactionHash": "0xd6d8cf52c3a0c59ba56557e2ef5b0df104a59fa43158c335b4c2eb3f62695723",
          "transactionIndex": "0x1",
          "logIndex": "0x3",
          "removed": false
        }
      ],
      "logsBloom": "0x04000000000000000000000020000000000000000000000000000000201000000000000000080000000000000000040100000000008000000000000000000000000000000000000000000008000000000000000000000000000000000000000000000000020000000000000000000800000000000000000000000010000004000000000000000000000000000000000000000000000000000800000000000000000000000200000040000101000000000100000000000000000000000000000000000002000000002000000000000000000400000000020000000000000020004000000000000000000000800000000000000000008000000000000000000000",
      "type": "0x2",
      "transactionHash": "0xd6d8cf52c3a0c59ba56557e2ef5b0df104a59fa43158c335b4c2eb3f62695723",
      "transactionIndex": "0x1",
      "blockHash": "0xdf49debe8630458aa10ff222fa23b7383a0135c96511c51f53a04f241d70e51e",
      "blockNumber": "0x804401d",
      "gasUsed": "0xa3fa6",
      "effectiveGasPrice": "0x5f5e100",
      "from": "0x3203b666cc57189bbc81823d49aaa553bbc241d2",
      "to": "0x844c0dd2995cd430aab7ddd1dca3fb15836674bc",
      "contractAddress": null,
      "gasUsedForL1": "0x28ab",
      "l1BlockNumber": "0x7950b0"
    },
    {
      "status": "0x1",
      "cumulativeGasUsed": "0x9994",
      "logs": [
        {
          "address": "0x26d04e0d3050b7b11054b5a48639d1fe88aa7be7",
          "topics": [
            "0xddf252ad1be2c89b69c2b068fc378daa952ba7f163c4a11628f55a4df523b3ef",
            "0x0000000000000000000000008dc791f24589f480ff31fe654d09bd01b5c5c2e8",
            "0x0000000000000000000000004147bfbc809baa168fa9375ce7d48d84eb27146b"
          ],
          "data": "0x00000000000000000000000000000000000000000000087861f6110952d80000",
          "blockHash": "0xb2ecd25816260b957c040578b648dffe46394c00273489e369bb2c9a10b103ee",
          "blockNumber": "0x804401f",
          "transactionHash": "0x2c474fef6d8ebd1cc3790f2135cf9b8d1dfd53a2d5230e98ec5652ae617b9599",
          "transactionIndex": "0x1",
          "logIndex": "0x0",
          "removed": false
        }
      ],
      "logsBloom": "0x00000000000000000000000000000000000000000000000000000000000000000000000000000000000000000000000000000000000000000000000000000000000000000000000000000008000000000000000000000000000000000000000000000000000000000000000000000000000000000000000000000810800000000000000000004000000000000000000000000000000000000800000008000000000000000000000040000000000000000000000000000000000000000000000000000002000000002008000000000000000000000000000000000001000000000000000000000000000000000000000000000000000000000000000000000000",
      "type": "0x2",
      "transactionHash": "0x2c474fef6d8ebd1cc3790f2135cf9b8d1dfd53a2d5230e98ec5652ae617b9599",
      "transactionIndex": "0x1",
      "blockHash": "0xb2ecd25816260b957c040578b648dffe46394c00273489e369bb2c9a10b103ee",
      "blockNumber": "0x804401f",
      "gasUsed": "0x9994",
      "effectiveGasPrice": "0x5f5e100",
      "from": "0x8dc791f24589f480ff31fe654d09bd01b5c5c2e8",
      "to": "0x26d04e0d3050b7b11054b5a48639d1fe88aa7be7",
      "contractAddress": null,
      "gasUsedForL1": "0x1400",
      "l1BlockNumber": "0x7950b0"
    },
    {
      "status": "0x1",
      "cumulativeGasUsed": "0x36e33",
      "logs": [
        {
          "address": "0x26d04e0d3050b7b11054b5a48639d1fe88aa7be7",
          "topics": [
            "0x8c5be1e5ebec7d5bd14f71427d1e84f3dd0314c0f7b2291e5b200ac8c7c3b925",
            "0x0000000000000000000000004147bfbc809baa168fa9375ce7d48d84eb27146b",
            "0x000000000000000000000000844c0dd2995cd430aab7ddd1dca3fb15836674bc"
          ],
          "data": "0x00000000000000000000000000000000000000000000021e19e0c9bab2400000",
          "blockHash": "0x0623fd8ca8f1a9a04995cec0fd286afd31ac27f07679ad693cbb9ca1c9c8eb49",
          "blockNumber": "0x8044023",
          "transactionHash": "0xfb42a580f2b7291041941c5da032bf88bfaeea1f1662a6132e832dc60f700c42",
          "transactionIndex": "0x2",
          "logIndex": "0x4",
          "removed": false
        }
      ],
      "logsBloom": "0x00000000000000000000000000000000000000000000000000000000000000000000000000000000000000000000040000000000000000000000000000200000000000000000000000000000000000000000000000000000000000000000000000000000000000000000000000000000000000000000000000000000800000000000000000000000000000000000000000000000000000000800000008000000020000000200000040000000000000000000000000000000000000000000000000000000000000002008000000000000000400000000000000000000000000000010000000000000000000000000000000000000000000000000000000000000",
      "type": "0x2",
      "transactionHash": "0xfb42a580f2b7291041941c5da032bf88bfaeea1f1662a6132e832dc60f700c42",
      "transactionIndex": "0x2",
      "blockHash": "0x0623fd8ca8f1a9a04995cec0fd286afd31ac27f07679ad693cbb9ca1c9c8eb49",
      "blockNumber": "0x8044023",
      "gasUsed": "0xc7ba",
      "effectiveGasPrice": "0x5f5e100",
      "from": "0x4147bfbc809baa168fa9375ce7d48d84eb27146b",
      "to": "0x26d04e0d3050b7b11054b5a48639d1fe88aa7be7",
      "contractAddress": null,
      "gasUsedForL1": "0x141d",
      "l1BlockNumber": "0x7950b0"
    },
    {
      "status": "0x1",
      "cumulativeGasUsed": "0xa3efd",
      "logs": [
        {
          "address": "0x844c0dd2995cd430aab7ddd1dca3fb15836674bc",
          "topics": [
            "0x39b35db192ce609adcab6c4cb18960e39d6af29bb28ea22aa4f3b56defa0595a",
            "0x0000000000000000000000000000000000000000000000000000000000000003",
            "0x0000000000000000000000004147bfbc809baa168fa9375ce7d48d84eb27146b"
          ],
          "data": "0x00000000000000000000000000000000000000000000000000000000000000400000000000000000000000000000000000000000000000000000000000000080000000000000000000000000000000000000000000000000000000000000001d436f6d6d756e69747920446576656c6f706d656e742046756e6420233200000000000000000000000000000000000000000000000000000000000000000000734372656174696e672061206465646963617465642066756e6420666f7220636f6d6d756e6974792d64726976656e20646576656c6f706d656e742e2e2e0a0a50726f706f73616c2049443a20320a5375626d69747465642061732070617274206f66207468652074657374206461746173657400000000000000000000000000",
          "blockHash": "0xbeccbf2e8b798678138d341f7df433d3a4f73e4d618bce6cb72d36b8e4fd1052",
          "blockNumber": "0x8044027",
          "transactionHash": "0x4c0baee960faf90913a7fa428471b0cfd5200b23bcbb8d7aa9708235bb6225fd",
          "transactionIndex": "0x1",
          "logIndex": "0x0",
          "removed": false
        },
        {
          "address": "0x26d04e0d3050b7b11054b5a48639d1fe88aa7be7",
          "topics": [
            "0xddf252ad1be2c89b69c2b068fc378daa952ba7f163c4a11628f55a4df523b3ef",
            "0x0000000000000000000000004147bfbc809baa168fa9375ce7d48d84eb27146b",
            "0x000000000000000000000000844c0dd2995cd430aab7ddd1dca3fb15836674bc"
          ],
          "data": "0x00000000000000000000000000000000000000000000021e19e0c9bab2400000",
          "blockHash": "0xbeccbf2e8b798678138d341f7df433d3a4f73e4d618bce6cb72d36b8e4fd1052",
          "blockNumber": "0x8044027",
          "transactionHash": "0x4c0baee960faf90913a7fa428471b0cfd5200b23bcbb8d7aa9708235bb6225fd",
          "transactionIndex": "0x1",
          "logIndex": "0x1",
          "removed": false
        },
        {
          "address": "0x844c0dd2995cd430aab7ddd1dca3fb15836674bc",
          "topics": [
            "0xddf252ad1be2c89b69c2b068fc378daa952ba7f163c4a11628f55a4df523b3ef",
            "0x0000000000000000000000000000000000000000000000000000000000000000",
            "0x0000000000000000000000004147bfbc809baa168fa9375ce7d48d84eb27146b",
            "0x0000000000000000000000000000000000000000000000000000000000000003"
          ],
          "data": "0x",
          "blockHash": "0xbeccbf2e8b798678138d341f7df433d3a4f73e4d618bce6cb72d36b8e4fd1052",
          "blockNumber": "0x8044027",
          "transactionHash": "0x4c0baee960faf90913a7fa428471b0cfd5200b23bcbb8d7aa9708235bb6225fd",
          "transactionIndex": "0x1",
          "logIndex": "0x2",
          "removed": false
        },
        {
          "address": "0x844c0dd2995cd430aab7ddd1dca3fb15836674bc",
          "topics": [
            "0xe1cc09c2084c21964d00393620b6707be6e6d3c23c53ed2e105d641d0e583f0f",
            "0x0000000000000000000000000000000000000000000000000000000000000003",
            "0x0000000000000000000000004147bfbc809baa168fa9375ce7d48d84eb27146b"
          ],
          "data": "0x00000000000000000000000000000000000000000000021e19e0c9bab2400000000000000000000000000000000000000000000000000000000000000000000c0000000000000000000000000000000000000000000000000000000067dd8e88",
          "blockHash": "0xbeccbf2e8b798678138d341f7df433d3a4f73e4d618bce6cb72d36b8e4fd1052",
          "blockNumber": "0x8044027",
          "transactionHash": "0x4c0baee960faf90913a7fa428471b0cfd5200b23bcbb8d7aa9708235bb6225fd",
          "transactionIndex": "0x1",
          "logIndex": "0x3",
          "removed": false
        }
      ],
      "logsBloom": "0x00000000000000000000000020000000000000000000000000000000200000000000000000080000000000000000040100000000028000000000000000000000000000000000000000000008000000000000000000000000000000000000000000000000020000000000000000000800000000000000000000000010800004000000000000000000000000000000000000000000000000000800000008000000000000000200000040000000000000000100000000800000000000000000400000000002000000002008000000000000000400000000000000000000000020004000000000000000000000800000000000000000000000000000000000000000",
      "type": "0x2",
      "transactionHash": "0x4c0baee960faf90913a7fa428471b0cfd5200b23bcbb8d7aa9708235bb6225fd",
      "transactionIndex": "0x1",
      "blockHash": "0xbeccbf2e8b798678138d341f7df433d3a4f73e4d618bce6cb72d36b8e4fd1052",
      "blockNumber": "0x8044027",
      "gasUsed": "0xa3efd",
      "effectiveGasPrice": "0x5f5e100",
      "from": "0x4147bfbc809baa168fa9375ce7d48d84eb27146b",
      "to": "0x844c0dd2995cd430aab7ddd1dca3fb15836674bc",
      "contractAddress": null,
      "gasUsedForL1": "0x2856",
      "l1BlockNumber": "0x7950b1"
    }
  ],
  "libraries": [],
  "pending": [],
  "returns": {},
  "timestamp": 1742573192,
  "chain": 421614,
  "commit": "5a0f2b3"
}