{
  "transactions": [
    {
      "hash": "0x8f7c7e38e6a7cf2cd927a4e9878f69ca6317f9c78b245e6fbfc1495674aa04f0",
      "transactionType": "CALL",
      "contractName": null,
      "contractAddress": "0x4713635357f9d01cbaf4dac7e93b66d69544dea8",
      "function": "transfer(address,uint256)",
      "arguments": [
        "0x1E6b84cdD0ea0e4B26bdAC857C5EdFc47FC5627a",
        "40000000000000000000000"
      ],
      "transaction": {
        "from": "0x8dc791f24589f480ff31fe654d09bd01b5c5c2e8",
        "to": "0x4713635357f9d01cbaf4dac7e93b66d69544dea8",
        "gas": "0x12bdb",
        "value": "0x0",
        "input": "0xa9059cbb0000000000000000000000001e6b84cdd0ea0e4b26bdac857c5edfc47fc5627a000000000000000000000000000000000000000000000878678326eac9000000",
        "nonce": "0x67",
        "chainId": "0x66eee"
      },
      "additionalContracts": [],
      "isFixedGasLimit": false
    },
    {
      "hash": "0xc3ecf3300b4cf14a5c8524325cc94cab0eb4c97509292773a829ba304f8914b7",
      "transactionType": "CALL",
      "contractName": null,
      "contractAddress": "0x4713635357f9d01cbaf4dac7e93b66d69544dea8",
      "function": "approve(address,uint256)",
      "arguments": [
        "0x7E00a6dfF783649fB3017151652448647600D47E",
        "10000000000000000000000"
      ],
      "transaction": {
        "from": "0x1e6b84cdd0ea0e4b26bdac857c5edfc47fc5627a",
        "to": "0x4713635357f9d01cbaf4dac7e93b66d69544dea8",
        "gas": "0x167e1",
        "value": "0x0",
        "input": "0x095ea7b30000000000000000000000007e00a6dff783649fb3017151652448647600d47e00000000000000000000000000000000000000000000021e19e0c9bab2400000",
        "nonce": "0x8",
        "chainId": "0x66eee"
      },
      "additionalContracts": [],
      "isFixedGasLimit": false
    },
    {
      "hash": "0x0896c857d400250d094a265cfc101f40fa944ba72f79b2ceea8035f11507eb2c",
      "transactionType": "CALL",
      "contractName": null,
      "contractAddress": "0x7e00a6dff783649fb3017151652448647600d47e",
      "function": "proposeInitiativeWithLock(string,string,uint256,uint256)",
      "arguments": [
        "Implement Governance Updates #0",
        "This proposal aims to improve the current governance structure...\\n\\nProposal ID: 0\\nSubmitted as part of the test dataset",
        "10000000000000000000000",
        "12"
      ],
      "transaction": {
        "from": "0x1e6b84cdd0ea0e4b26bdac857c5edfc47fc5627a",
        "to": "0x7e00a6dff783649fb3017151652448647600d47e",
        "gas": "0xf74a0",
        "value": "0x0",
        "input": "0x883c7396000000000000000000000000000000000000000000000000000000000000008000000000000000000000000000000000000000000000000000000000000000c000000000000000000000000000000000000000000000021e19e0c9bab2400000000000000000000000000000000000000000000000000000000000000000000c000000000000000000000000000000000000000000000000000000000000001f496d706c656d656e7420476f7665726e616e63652055706461746573202330000000000000000000000000000000000000000000000000000000000000000077546869732070726f706f73616c2061696d7320746f20696d70726f7665207468652063757272656e7420676f7665726e616e6365207374727563747572652e2e2e0a0a50726f706f73616c2049443a20300a5375626d69747465642061732070617274206f662074686520746573742064617461736574000000000000000000",
        "nonce": "0x9",
        "chainId": "0x66eee"
      },
      "additionalContracts": [],
      "isFixedGasLimit": false
    },
    {
      "hash": "0x5285e81ed322e8637f84a5215dc8bef3ba9f6fe26a5468ee2f821f7866d10c51",
      "transactionType": "CALL",
      "contractName": null,
      "contractAddress": "0x4713635357f9d01cbaf4dac7e93b66d69544dea8",
      "function": "transfer(address,uint256)",
      "arguments": [
        "0x3203b666CC57189BBc81823d49aAA553BBc241D2",
        "40000000000000000000000"
      ],
      "transaction": {
        "from": "0x8dc791f24589f480ff31fe654d09bd01b5c5c2e8",
        "to": "0x4713635357f9d01cbaf4dac7e93b66d69544dea8",
        "gas": "0x12bdb",
        "value": "0x0",
        "input": "0xa9059cbb0000000000000000000000003203b666cc57189bbc81823d49aaa553bbc241d2000000000000000000000000000000000000000000000878678326eac9000000",
        "nonce": "0x68",
        "chainId": "0x66eee"
      },
      "additionalContracts": [],
      "isFixedGasLimit": false
    },
    {
      "hash": "0xb2aaa2b84dcaf774c7cffd99debb972d8bc74a3caa8ce5ff656da41919eb4efb",
      "transactionType": "CALL",
      "contractName": null,
      "contractAddress": "0x4713635357f9d01cbaf4dac7e93b66d69544dea8",
      "function": "approve(address,uint256)",
      "arguments": [
        "0x7E00a6dfF783649fB3017151652448647600D47E",
        "10000000000000000000000"
      ],
      "transaction": {
        "from": "0x3203b666cc57189bbc81823d49aaa553bbc241d2",
        "to": "0x4713635357f9d01cbaf4dac7e93b66d69544dea8",
        "gas": "0x167e1",
        "value": "0x0",
        "input": "0x095ea7b30000000000000000000000007e00a6dff783649fb3017151652448647600d47e00000000000000000000000000000000000000000000021e19e0c9bab2400000",
        "nonce": "0x6",
        "chainId": "0x66eee"
      },
      "additionalContracts": [],
      "isFixedGasLimit": false
    },
    {
      "hash": "0xc15d7868bc22bc5fe7bfd7da141afcbeea4cb0bf09fb814b03dba48d2492a778",
      "transactionType": "CALL",
      "contractName": null,
      "contractAddress": "0x7e00a6dff783649fb3017151652448647600d47e",
      "function": "proposeInitiativeWithLock(string,string,uint256,uint256)",
      "arguments": [
        "Treasury Allocation Proposal #1",
        "A strategic allocation of treasury funds for sustainable growth...\\n\\nProposal ID: 1\\nSubmitted as part of the test dataset",
        "10000000000000000000000",
        "12"
      ],
      "transaction": {
        "from": "0x3203b666cc57189bbc81823d49aaa553bbc241d2",
        "to": "0x7e00a6dff783649fb3017151652448647600d47e",
        "gas": "0xdef75",
        "value": "0x0",
        "input": "0x883c7396000000000000000000000000000000000000000000000000000000000000008000000000000000000000000000000000000000000000000000000000000000c000000000000000000000000000000000000000000000021e19e0c9bab2400000000000000000000000000000000000000000000000000000000000000000000c000000000000000000000000000000000000000000000000000000000000001f547265617375727920416c6c6f636174696f6e2050726f706f73616c202331000000000000000000000000000000000000000000000000000000000000000078412073747261746567696320616c6c6f636174696f6e206f662074726561737572792066756e647320666f72207375737461696e61626c652067726f7774682e2e2e0a0a50726f706f73616c2049443a20310a5375626d69747465642061732070617274206f6620746865207465737420646174617365740000000000000000",
        "nonce": "0x7",
        "chainId": "0x66eee"
      },
      "additionalContracts": [],
      "isFixedGasLimit": false
    },
    {
      "hash": "0x5f75e1ae49696f592a773aee11465f20836f1debe40a4a6e942d9b62c5089c2e",
      "transactionType": "CALL",
      "contractName": null,
      "contractAddress": "0x4713635357f9d01cbaf4dac7e93b66d69544dea8",
      "function": "transfer(address,uint256)",
      "arguments": [
        "0x4147bfbC809baa168fA9375ce7D48d84eB27146B",
        "40000000000000000000000"
      ],
      "transaction": {
        "from": "0x8dc791f24589f480ff31fe654d09bd01b5c5c2e8",
        "to": "0x4713635357f9d01cbaf4dac7e93b66d69544dea8",
        "gas": "0x12bdb",
        "value": "0x0",
        "input": "0xa9059cbb0000000000000000000000004147bfbc809baa168fa9375ce7d48d84eb27146b000000000000000000000000000000000000000000000878678326eac9000000",
        "nonce": "0x69",
        "chainId": "0x66eee"
      },
      "additionalContracts": [],
      "isFixedGasLimit": false
    },
    {
      "hash": "0x811562fa30d0fe140590fc483e8bea39245cf7521aaa399d09765d92ece2d1c5",
      "transactionType": "CALL",
      "contractName": null,
      "contractAddress": "0x4713635357f9d01cbaf4dac7e93b66d69544dea8",
      "function": "approve(address,uint256)",
      "arguments": [
        "0x7E00a6dfF783649fB3017151652448647600D47E",
        "10000000000000000000000"
      ],
      "transaction": {
        "from": "0x4147bfbc809baa168fa9375ce7d48d84eb27146b",
        "to": "0x4713635357f9d01cbaf4dac7e93b66d69544dea8",
        "gas": "0x167e1",
        "value": "0x0",
        "input": "0x095ea7b30000000000000000000000007e00a6dff783649fb3017151652448647600d47e00000000000000000000000000000000000000000000021e19e0c9bab2400000",
        "nonce": "0x6",
        "chainId": "0x66eee"
      },
      "additionalContracts": [],
      "isFixedGasLimit": false
    },
    {
      "hash": "0x246a5b3cc2d0b1ebe9ea309f87014162ff7c9a153489a2e59fb6a6ec3084d8ca",
      "transactionType": "CALL",
      "contractName": null,
      "contractAddress": "0x7e00a6dff783649fb3017151652448647600d47e",
      "function": "proposeInitiativeWithLock(string,string,uint256,uint256)",
      "arguments": [
        "Community Development Fund #2",
        "Creating a dedicated fund for community-driven development...\\n\\nProposal ID: 2\\nSubmitted as part of the test dataset",
        "10000000000000000000000",
        "12"
      ],
      "transaction": {
        "from": "0x4147bfbc809baa168fa9375ce7d48d84eb27146b",
        "to": "0x7e00a6dff783649fb3017151652448647600d47e",
        "gas": "0xec0d4",
        "value": "0x0",
        "input": "0x883c7396000000000000000000000000000000000000000000000000000000000000008000000000000000000000000000000000000000000000000000000000000000c000000000000000000000000000000000000000000000021e19e0c9bab2400000000000000000000000000000000000000000000000000000000000000000000c000000000000000000000000000000000000000000000000000000000000001d436f6d6d756e69747920446576656c6f706d656e742046756e6420233200000000000000000000000000000000000000000000000000000000000000000000734372656174696e672061206465646963617465642066756e6420666f7220636f6d6d756e6974792d64726976656e20646576656c6f706d656e742e2e2e0a0a50726f706f73616c2049443a20320a5375626d69747465642061732070617274206f66207468652074657374206461746173657400000000000000000000000000",
        "nonce": "0x7",
        "chainId": "0x66eee"
      },
      "additionalContracts": [],
      "isFixedGasLimit": false
    }
  ],
  "receipts": [
    {
      "status": "0x1",
      "cumulativeGasUsed": "0x15f1f2",
      "logs": [
        {
          "address": "0x4713635357f9d01cbaf4dac7e93b66d69544dea8",
          "topics": [
            "0xddf252ad1be2c89b69c2b068fc378daa952ba7f163c4a11628f55a4df523b3ef",
            "0x0000000000000000000000008dc791f24589f480ff31fe654d09bd01b5c5c2e8",
            "0x0000000000000000000000001e6b84cdd0ea0e4b26bdac857c5edfc47fc5627a"
          ],
          "data": "0x000000000000000000000000000000000000000000000878678326eac9000000",
          "blockHash": "0x2cbb88aa1673c58cc6609dc19df344c7d785c83bfa10f7fa86872257b035e738",
          "blockNumber": "0x81da963",
          "transactionHash": "0x8f7c7e38e6a7cf2cd927a4e9878f69ca6317f9c78b245e6fbfc1495674aa04f0",
          "transactionIndex": "0x6",
          "logIndex": "0x1b",
          "removed": false
        }
      ],
      "logsBloom": "0x00000000000000000000000000000000004000000000000000000000000000000000000000000000000000000000000000000800000000000000000000000000000000000000000000000008000000000020000000000000000000000000000000000000000401000000000000000000000000000000000000000810000000000000000000004000000000000000000000000000000000000000000000000000000000000000000000000000000000000000400000000000000000000000000000000002000000000000000000000000000000000000000000000001000000000000000000000000000000000000000000000000000000000000000000000000",
      "type": "0x2",
      "transactionHash": "0x8f7c7e38e6a7cf2cd927a4e9878f69ca6317f9c78b245e6fbfc1495674aa04f0",
      "transactionIndex": "0x6",
      "blockHash": "0x2cbb88aa1673c58cc6609dc19df344c7d785c83bfa10f7fa86872257b035e738",
      "blockNumber": "0x81da963",
      "gasUsed": "0xce7d",
      "effectiveGasPrice": "0x5f5e100",
      "from": "0x8dc791f24589f480ff31fe654d09bd01b5c5c2e8",
      "to": "0x4713635357f9d01cbaf4dac7e93b66d69544dea8",
      "contractAddress": null,
      "gasUsedForL1": "0x48f5",
      "l1BlockNumber": "0x79e0ca"
    },
    {
      "status": "0x1",
      "cumulativeGasUsed": "0xfc7a",
      "logs": [
        {
          "address": "0x4713635357f9d01cbaf4dac7e93b66d69544dea8",
          "topics": [
            "0x8c5be1e5ebec7d5bd14f71427d1e84f3dd0314c0f7b2291e5b200ac8c7c3b925",
            "0x0000000000000000000000001e6b84cdd0ea0e4b26bdac857c5edfc47fc5627a",
            "0x0000000000000000000000007e00a6dff783649fb3017151652448647600d47e"
          ],
          "data": "0x00000000000000000000000000000000000000000000021e19e0c9bab2400000",
          "blockHash": "0x81afd1f1ca42180a4908e7e6fa671ab21ee6d6723eb016bf8125d11e6dc82424",
          "blockNumber": "0x81da967",
          "transactionHash": "0xc3ecf3300b4cf14a5c8524325cc94cab0eb4c97509292773a829ba304f8914b7",
          "transactionIndex": "0x1",
          "logIndex": "0x0",
          "removed": false
        }
      ],
      "logsBloom": "0x00000000000000000000000000000000004000000000000000000000000000000000000000000000000000000000000000000800000000000000000000200000000000000000000000000000000000000020000000000000000000000000000000000000000401000004000000000000000000000000000000000000000000000000000000000000000000000000000000000040000000000000000000000000020000000000000000000000000000000000400000000000000000000000000000000000000040000000000000000000000000000000000000000000000000000010000000000000000000000000000000000000000000000000000000000000",
      "type": "0x2",
      "transactionHash": "0xc3ecf3300b4cf14a5c8524325cc94cab0eb4c97509292773a829ba304f8914b7",
      "transactionIndex": "0x1",
      "blockHash": "0x81afd1f1ca42180a4908e7e6fa671ab21ee6d6723eb016bf8125d11e6dc82424",
      "blockNumber": "0x81da967",
      "gasUsed": "0xfc7a",
      "effectiveGasPrice": "0x5f5e100",
      "from": "0x1e6b84cdd0ea0e4b26bdac857c5edfc47fc5627a",
      "to": "0x4713635357f9d01cbaf4dac7e93b66d69544dea8",
      "contractAddress": null,
      "gasUsedForL1": "0x48f5",
      "l1BlockNumber": "0x79e0ca"
    },
    {
      "status": "0x1",
      "cumulativeGasUsed": "0xe3237",
      "logs": [
        {
          "address": "0x7e00a6dff783649fb3017151652448647600d47e",
          "topics": [
            "0x39b35db192ce609adcab6c4cb18960e39d6af29bb28ea22aa4f3b56defa0595a",
            "0x0000000000000000000000000000000000000000000000000000000000000001",
            "0x0000000000000000000000001e6b84cdd0ea0e4b26bdac857c5edfc47fc5627a"
          ],
          "data": "0x00000000000000000000000000000000000000000000000000000000000000400000000000000000000000000000000000000000000000000000000000000080000000000000000000000000000000000000000000000000000000000000001f496d706c656d656e7420476f7665726e616e63652055706461746573202330000000000000000000000000000000000000000000000000000000000000000077546869732070726f706f73616c2061696d7320746f20696d70726f7665207468652063757272656e7420676f7665726e616e6365207374727563747572652e2e2e0a0a50726f706f73616c2049443a20300a5375626d69747465642061732070617274206f662074686520746573742064617461736574000000000000000000",
          "blockHash": "0x28961db5b614b14f337ca4ca8eb6cbf55a89ecdbaff15c94ee651ae3e96767c0",
          "blockNumber": "0x81da96b",
          "transactionHash": "0x0896c857d400250d094a265cfc101f40fa944ba72f79b2ceea8035f11507eb2c",
          "transactionIndex": "0x3",
          "logIndex": "0x4",
          "removed": false
        },
        {
          "address": "0x4713635357f9d01cbaf4dac7e93b66d69544dea8",
          "topics": [
            "0xddf252ad1be2c89b69c2b068fc378daa952ba7f163c4a11628f55a4df523b3ef",
            "0x0000000000000000000000001e6b84cdd0ea0e4b26bdac857c5edfc47fc5627a",
            "0x0000000000000000000000007e00a6dff783649fb3017151652448647600d47e"
          ],
          "data": "0x00000000000000000000000000000000000000000000021e19e0c9bab2400000",
          "blockHash": "0x28961db5b614b14f337ca4ca8eb6cbf55a89ecdbaff15c94ee651ae3e96767c0",
          "blockNumber": "0x81da96b",
          "transactionHash": "0x0896c857d400250d094a265cfc101f40fa944ba72f79b2ceea8035f11507eb2c",
          "transactionIndex": "0x3",
          "logIndex": "0x5",
          "removed": false
        },
        {
          "address": "0x7e00a6dff783649fb3017151652448647600d47e",
          "topics": [
            "0xddf252ad1be2c89b69c2b068fc378daa952ba7f163c4a11628f55a4df523b3ef",
            "0x0000000000000000000000000000000000000000000000000000000000000000",
            "0x0000000000000000000000001e6b84cdd0ea0e4b26bdac857c5edfc47fc5627a",
            "0x0000000000000000000000000000000000000000000000000000000000000001"
          ],
          "data": "0x",
          "blockHash": "0x28961db5b614b14f337ca4ca8eb6cbf55a89ecdbaff15c94ee651ae3e96767c0",
          "blockNumber": "0x81da96b",
          "transactionHash": "0x0896c857d400250d094a265cfc101f40fa944ba72f79b2ceea8035f11507eb2c",
          "transactionIndex": "0x3",
          "logIndex": "0x6",
          "removed": false
        },
        {
          "address": "0x7e00a6dff783649fb3017151652448647600d47e",
          "topics": [
            "0xe1cc09c2084c21964d00393620b6707be6e6d3c23c53ed2e105d641d0e583f0f",
            "0x0000000000000000000000000000000000000000000000000000000000000001",
            "0x0000000000000000000000001e6b84cdd0ea0e4b26bdac857c5edfc47fc5627a"
          ],
          "data": "0x00000000000000000000000000000000000000000000021e19e0c9bab2400000000000000000000000000000000000000000000000000000000000000000000c0000000000000000000000000000000000000000000000000000000000000001",
          "blockHash": "0x28961db5b614b14f337ca4ca8eb6cbf55a89ecdbaff15c94ee651ae3e96767c0",
          "blockNumber": "0x81da96b",
          "transactionHash": "0x0896c857d400250d094a265cfc101f40fa944ba72f79b2ceea8035f11507eb2c",
          "transactionIndex": "0x3",
          "logIndex": "0x7",
          "removed": false
        }
      ],
      "logsBloom": "0x00000000000800000000000020000000004000000000000000000000200000000000000010080000000000000000000100000800000000000000000000040000000000000000000000000008000000000020000000040000000000000000000000000000020401000004000000000800000000000000000000000010000000000000000000000000000000000000000000000040000000000000000000000000000000000000000000000000000000000000400000000000000000008000000000000002000040000000000000000000000000000000000000000000000060004000000000000000000000800000000000000000000000000000000000000000",
      "type": "0x2",
      "transactionHash": "0x0896c857d400250d094a265cfc101f40fa944ba72f79b2ceea8035f11507eb2c",
      "transactionIndex": "0x3",
      "blockHash": "0x28961db5b614b14f337ca4ca8eb6cbf55a89ecdbaff15c94ee651ae3e96767c0",
      "blockNumber": "0x81da96b",
      "gasUsed": "0xb21b2",
      "effectiveGasPrice": "0x5f5e100",
      "from": "0x1e6b84cdd0ea0e4b26bdac857c5edfc47fc5627a",
      "to": "0x7e00a6dff783649fb3017151652448647600d47e",
      "contractAddress": null,
      "gasUsedForL1": "0x904f",
      "l1BlockNumber": "0x79e0ca"
    },
    {
      "status": "0x1",
      "cumulativeGasUsed": "0x4a46f",
      "logs": [
        {
          "address": "0x4713635357f9d01cbaf4dac7e93b66d69544dea8",
          "topics": [
            "0xddf252ad1be2c89b69c2b068fc378daa952ba7f163c4a11628f55a4df523b3ef",
            "0x0000000000000000000000008dc791f24589f480ff31fe654d09bd01b5c5c2e8",
            "0x0000000000000000000000003203b666cc57189bbc81823d49aaa553bbc241d2"
          ],
          "data": "0x000000000000000000000000000000000000000000000878678326eac9000000",
          "blockHash": "0x28856516995e7c95259db0283575db8f01be208aee5f5eb68e4b6650ef81dd40",
          "blockNumber": "0x81da96f",
          "transactionHash": "0x5285e81ed322e8637f84a5215dc8bef3ba9f6fe26a5468ee2f821f7866d10c51",
          "transactionIndex": "0x3",
          "logIndex": "0x7",
          "removed": false
        }
      ],
      "logsBloom": "0x00000000000000000000000000000000004000000000000000000000001000000000000000000000000000000000000000000000000000000000000000000000000000000000000000000008000000000000000000000000000000000000000000000000000001000000000000000000000000000000000000000810000000000000000000004000000000000000000000000000000000000000000000000000000000000000000000000001000000000000400000000000000000000000000000000002000000000000000000000000000000000000020000000001000000000000000000000000000000000000000000000000000000000000000000000000",
      "type": "0x2",
      "transactionHash": "0x5285e81ed322e8637f84a5215dc8bef3ba9f6fe26a5468ee2f821f7866d10c51",
      "transactionIndex": "0x3",
      "blockHash": "0x28856516995e7c95259db0283575db8f01be208aee5f5eb68e4b6650ef81dd40",
      "blockNumber": "0x81da96f",
      "gasUsed": "0xce7d",
      "effectiveGasPrice": "0x5f5e100",
      "from": "0x8dc791f24589f480ff31fe654d09bd01b5c5c2e8",
      "to": "0x4713635357f9d01cbaf4dac7e93b66d69544dea8",
      "contractAddress": null,
      "gasUsedForL1": "0x48f5",
      "l1BlockNumber": "0x79e0ca"
    },
    {
      "status": "0x1",
      "cumulativeGasUsed": "0x2fed0",
      "logs": [
        {
          "address": "0x4713635357f9d01cbaf4dac7e93b66d69544dea8",
          "topics": [
            "0x8c5be1e5ebec7d5bd14f71427d1e84f3dd0314c0f7b2291e5b200ac8c7c3b925",
            "0x0000000000000000000000003203b666cc57189bbc81823d49aaa553bbc241d2",
            "0x0000000000000000000000007e00a6dff783649fb3017151652448647600d47e"
          ],
          "data": "0x00000000000000000000000000000000000000000000021e19e0c9bab2400000",
          "blockHash": "0xe7a479608c0efe4b3353b2a490b672cce2f775be81b039a28355cfa618e65106",
          "blockNumber": "0x81da973",
          "transactionHash": "0xb2aaa2b84dcaf774c7cffd99debb972d8bc74a3caa8ce5ff656da41919eb4efb",
          "transactionIndex": "0x2",
          "logIndex": "0x4",
          "removed": false
        }
      ],
      "logsBloom": "0x00000000000000000000000000000000004000000000000000000000001000000000000000000000000000000000000000000000000000000000000000200000000000000000000000000000000000000000000000000000000000000000000000000000000001000004000000000000000000000000000000000000000000000000000000000000000000000000000000000040000000000000000000000000020000000000000000000001000000000000400000000000000000000000000000000000000040000000000000000000000000000000020000000000000000000010000000000000000000000000000000000000000000000000000000000000",
      "type": "0x2",
      "transactionHash": "0xb2aaa2b84dcaf774c7cffd99debb972d8bc74a3caa8ce5ff656da41919eb4efb",
      "transactionIndex": "0x2",
      "blockHash": "0xe7a479608c0efe4b3353b2a490b672cce2f775be81b039a28355cfa618e65106",
      "blockNumber": "0x81da973",
      "gasUsed": "0xfc7a",
      "effectiveGasPrice": "0x5f5e100",
      "from": "0x3203b666cc57189bbc81823d49aaa553bbc241d2",
      "to": "0x4713635357f9d01cbaf4dac7e93b66d69544dea8",
      "contractAddress": null,
      "gasUsedForL1": "0x48f5",
      "l1BlockNumber": "0x79e0ca"
    },
    {
      "status": "0x1",
      "cumulativeGasUsed": "0x12a283",
      "logs": [
        {
          "address": "0x7e00a6dff783649fb3017151652448647600d47e",
          "topics": [
            "0x39b35db192ce609adcab6c4cb18960e39d6af29bb28ea22aa4f3b56defa0595a",
            "0x0000000000000000000000000000000000000000000000000000000000000002",
            "0x0000000000000000000000003203b666cc57189bbc81823d49aaa553bbc241d2"
          ],
          "data": "0x00000000000000000000000000000000000000000000000000000000000000400000000000000000000000000000000000000000000000000000000000000080000000000000000000000000000000000000000000000000000000000000001f547265617375727920416c6c6f636174696f6e2050726f706f73616c202331000000000000000000000000000000000000000000000000000000000000000078412073747261746567696320616c6c6f636174696f6e206f662074726561737572792066756e647320666f72207375737461696e61626c652067726f7774682e2e2e0a0a50726f706f73616c2049443a20310a5375626d69747465642061732070617274206f6620746865207465737420646174617365740000000000000000",
          "blockHash": "0x7e89525a085cea653c048f10cac531b9b2dc3bb7c251c7265e131779e4e6c645",
          "blockNumber": "0x81da977",
          "transactionHash": "0xc15d7868bc22bc5fe7bfd7da141afcbeea4cb0bf09fb814b03dba48d2492a778",
          "transactionIndex": "0x5",
          "logIndex": "0x5",
          "removed": false
        },
        {
          "address": "0x4713635357f9d01cbaf4dac7e93b66d69544dea8",
          "topics": [
            "0xddf252ad1be2c89b69c2b068fc378daa952ba7f163c4a11628f55a4df523b3ef",
            "0x0000000000000000000000003203b666cc57189bbc81823d49aaa553bbc241d2",
            "0x0000000000000000000000007e00a6dff783649fb3017151652448647600d47e"
          ],
          "data": "0x00000000000000000000000000000000000000000000021e19e0c9bab2400000",
          "blockHash": "0x7e89525a085cea653c048f10cac531b9b2dc3bb7c251c7265e131779e4e6c645",
          "blockNumber": "0x81da977",
          "transactionHash": "0xc15d7868bc22bc5fe7bfd7da141afcbeea4cb0bf09fb814b03dba48d2492a778",
          "transactionIndex": "0x5",
          "logIndex": "0x6",
          "removed": false
        },
        {
          "address": "0x7e00a6dff783649fb3017151652448647600d47e",
          "topics": [
            "0xddf252ad1be2c89b69c2b068fc378daa952ba7f163c4a11628f55a4df523b3ef",
            "0x0000000000000000000000000000000000000000000000000000000000000000",
            "0x0000000000000000000000003203b666cc57189bbc81823d49aaa553bbc241d2",
            "0x0000000000000000000000000000000000000000000000000000000000000002"
          ],
          "data": "0x",
          "blockHash": "0x7e89525a085cea653c048f10cac531b9b2dc3bb7c251c7265e131779e4e6c645",
          "blockNumber": "0x81da977",
          "transactionHash": "0xc15d7868bc22bc5fe7bfd7da141afcbeea4cb0bf09fb814b03dba48d2492a778",
          "transactionIndex": "0x5",
          "logIndex": "0x7",
          "removed": false
        },
        {
          "address": "0x7e00a6dff783649fb3017151652448647600d47e",
          "topics": [
            "0xe1cc09c2084c21964d00393620b6707be6e6d3c23c53ed2e105d641d0e583f0f",
            "0x0000000000000000000000000000000000000000000000000000000000000002",
            "0x0000000000000000000000003203b666cc57189bbc81823d49aaa553bbc241d2"
          ],
          "data": "0x00000000000000000000000000000000000000000000021e19e0c9bab2400000000000000000000000000000000000000000000000000000000000000000000c0000000000000000000000000000000000000000000000000000000000000002",
          "blockHash": "0x7e89525a085cea653c048f10cac531b9b2dc3bb7c251c7265e131779e4e6c645",
          "blockNumber": "0x81da977",
          "transactionHash": "0xc15d7868bc22bc5fe7bfd7da141afcbeea4cb0bf09fb814b03dba48d2492a778",
          "transactionIndex": "0x5",
          "logIndex": "0x8",
          "removed": false
        }
      ],
      "logsBloom": "0x04000000000800000000000020000000004000000000000000000000201000000000000010080000000000000000000100000000000000000000000000000000000000000000000000000008000000000000000000000000000000000000000000000000020001000004000000000800000000000000000000000010000000000000000000000000000000000000000000000040000000000000000000000000000000000000000000000101000000000000400000000000000000008000000000000002000040000000000000000000000000000000020000000000000020004000000000000000000000800000000000000000008000000000000000000000",
      "type": "0x2",
      "transactionHash": "0xc15d7868bc22bc5fe7bfd7da141afcbeea4cb0bf09fb814b03dba48d2492a778",
      "transactionIndex": "0x5",
      "blockHash": "0x7e89525a085cea653c048f10cac531b9b2dc3bb7c251c7265e131779e4e6c645",
      "blockNumber": "0x81da977",
      "gasUsed": "0xaa515",
      "effectiveGasPrice": "0x5f5e100",
      "from": "0x3203b666cc57189bbc81823d49aaa553bbc241d2",
      "to": "0x7e00a6dff783649fb3017151652448647600d47e",
      "contractAddress": null,
      "gasUsedForL1": "0x8e4e",
      "l1BlockNumber": "0x79e0ca"
    },
    {
      "status": "0x1",
      "cumulativeGasUsed": "0x4a46f",
      "logs": [
        {
          "address": "0x4713635357f9d01cbaf4dac7e93b66d69544dea8",
          "topics": [
            "0xddf252ad1be2c89b69c2b068fc378daa952ba7f163c4a11628f55a4df523b3ef",
            "0x0000000000000000000000008dc791f24589f480ff31fe654d09bd01b5c5c2e8",
            "0x0000000000000000000000004147bfbc809baa168fa9375ce7d48d84eb27146b"
          ],
          "data": "0x000000000000000000000000000000000000000000000878678326eac9000000",
          "blockHash": "0x5c99fa237084e8a1ad2a6099d6e9c36e2af9801ad49de9a5ef3e078f8c455740",
          "blockNumber": "0x81da97b",
          "transactionHash": "0x5f75e1ae49696f592a773aee11465f20836f1debe40a4a6e942d9b62c5089c2e",
          "transactionIndex": "0x3",
          "logIndex": "0x7",
          "removed": false
        }
      ],
      "logsBloom": "0x00000000000000000000000000000000004000000000000000000000000000000000000000000000000000000000000000000000000000000000000000000000000000000000000000000008000000000000000000000000000000000000000000000000000001000000000000000000000000000000000000000810800000000000000000004000000000000000000000000000000000000000000008000000000000000000000000000000000000000000400000000000000000000000000000000002000000000008000000000000000000000000000000000001000000000000000000000000000000000000000000000000000000000000000000000000",
      "type": "0x2",
      "transactionHash": "0x5f75e1ae49696f592a773aee11465f20836f1debe40a4a6e942d9b62c5089c2e",
      "transactionIndex": "0x3",
      "blockHash": "0x5c99fa237084e8a1ad2a6099d6e9c36e2af9801ad49de9a5ef3e078f8c455740",
      "blockNumber": "0x81da97b",
      "gasUsed": "0xce7d",
      "effectiveGasPrice": "0x5f5e100",
      "from": "0x8dc791f24589f480ff31fe654d09bd01b5c5c2e8",
      "to": "0x4713635357f9d01cbaf4dac7e93b66d69544dea8",
      "contractAddress": null,
      "gasUsedForL1": "0x48f5",
      "l1BlockNumber": "0x79e0cb"
    },
    {
      "status": "0x1",
      "cumulativeGasUsed": "0x5230c",
      "logs": [
        {
          "address": "0x4713635357f9d01cbaf4dac7e93b66d69544dea8",
          "topics": [
            "0x8c5be1e5ebec7d5bd14f71427d1e84f3dd0314c0f7b2291e5b200ac8c7c3b925",
            "0x0000000000000000000000004147bfbc809baa168fa9375ce7d48d84eb27146b",
            "0x0000000000000000000000007e00a6dff783649fb3017151652448647600d47e"
          ],
          "data": "0x00000000000000000000000000000000000000000000021e19e0c9bab2400000",
          "blockHash": "0xd878b343cba7ca831a205c5593d145f9fcd9836fa176aa6416043c1375041218",
          "blockNumber": "0x81da97f",
          "transactionHash": "0x811562fa30d0fe140590fc483e8bea39245cf7521aaa399d09765d92ece2d1c5",
          "transactionIndex": "0x2",
          "logIndex": "0x1",
          "removed": false
        }
      ],
      "logsBloom": "0x00000000000000000000000000000000004000000000000000000000000000000000000000000000000000000000000000000000000000000000000000200000000000000000000000000000000000000000000000000000000000000000000000000000000001000004000000000000000000000000000000000000800000000000000000000000000000000000000000000040000000000000000008000000020000000000000000000000000000000000400000000000000000000000000000000000000040000008000000000000000000000000000000000000000000000010000000000000000000000000000000000000000000000000000000000000",
      "type": "0x2",
      "transactionHash": "0x811562fa30d0fe140590fc483e8bea39245cf7521aaa399d09765d92ece2d1c5",
      "transactionIndex": "0x2",
      "blockHash": "0xd878b343cba7ca831a205c5593d145f9fcd9836fa176aa6416043c1375041218",
      "blockNumber": "0x81da97f",
      "gasUsed": "0xfc7a",
      "effectiveGasPrice": "0x5f5e100",
      "from": "0x4147bfbc809baa168fa9375ce7d48d84eb27146b",
      "to": "0x4713635357f9d01cbaf4dac7e93b66d69544dea8",
      "contractAddress": null,
      "gasUsedForL1": "0x48f5",
      "l1BlockNumber": "0x79e0cb"
    },
    {
      "status": "0x1",
      "cumulativeGasUsed": "0xb515c",
      "logs": [
        {
          "address": "0x7e00a6dff783649fb3017151652448647600d47e",
          "topics": [
            "0x39b35db192ce609adcab6c4cb18960e39d6af29bb28ea22aa4f3b56defa0595a",
            "0x0000000000000000000000000000000000000000000000000000000000000003",
            "0x0000000000000000000000004147bfbc809baa168fa9375ce7d48d84eb27146b"
          ],
          "data": "0x00000000000000000000000000000000000000000000000000000000000000400000000000000000000000000000000000000000000000000000000000000080000000000000000000000000000000000000000000000000000000000000001d436f6d6d756e69747920446576656c6f706d656e742046756e6420233200000000000000000000000000000000000000000000000000000000000000000000734372656174696e672061206465646963617465642066756e6420666f7220636f6d6d756e6974792d64726976656e20646576656c6f706d656e742e2e2e0a0a50726f706f73616c2049443a20320a5375626d69747465642061732070617274206f66207468652074657374206461746173657400000000000000000000000000",
          "blockHash": "0x10869ba6f7dc673f35e8cb3a11bdab67d8be39855973e88b122b92ae6c9c2264",
          "blockNumber": "0x81da983",
          "transactionHash": "0x246a5b3cc2d0b1ebe9ea309f87014162ff7c9a153489a2e59fb6a6ec3084d8ca",
          "transactionIndex": "0x2",
          "logIndex": "0x1",
          "removed": false
        },
        {
          "address": "0x4713635357f9d01cbaf4dac7e93b66d69544dea8",
          "topics": [
            "0xddf252ad1be2c89b69c2b068fc378daa952ba7f163c4a11628f55a4df523b3ef",
            "0x0000000000000000000000004147bfbc809baa168fa9375ce7d48d84eb27146b",
            "0x0000000000000000000000007e00a6dff783649fb3017151652448647600d47e"
          ],
          "data": "0x00000000000000000000000000000000000000000000021e19e0c9bab2400000",
          "blockHash": "0x10869ba6f7dc673f35e8cb3a11bdab67d8be39855973e88b122b92ae6c9c2264",
          "blockNumber": "0x81da983",
          "transactionHash": "0x246a5b3cc2d0b1ebe9ea309f87014162ff7c9a153489a2e59fb6a6ec3084d8ca",
          "transactionIndex": "0x2",
          "logIndex": "0x2",
          "removed": false
        },
        {
          "address": "0x7e00a6dff783649fb3017151652448647600d47e",
          "topics": [
            "0xddf252ad1be2c89b69c2b068fc378daa952ba7f163c4a11628f55a4df523b3ef",
            "0x0000000000000000000000000000000000000000000000000000000000000000",
            "0x0000000000000000000000004147bfbc809baa168fa9375ce7d48d84eb27146b",
            "0x0000000000000000000000000000000000000000000000000000000000000003"
          ],
          "data": "0x",
          "blockHash": "0x10869ba6f7dc673f35e8cb3a11bdab67d8be39855973e88b122b92ae6c9c2264",
          "blockNumber": "0x81da983",
          "transactionHash": "0x246a5b3cc2d0b1ebe9ea309f87014162ff7c9a153489a2e59fb6a6ec3084d8ca",
          "transactionIndex": "0x2",
          "logIndex": "0x3",
          "removed": false
        },
        {
          "address": "0x7e00a6dff783649fb3017151652448647600d47e",
          "topics": [
            "0xe1cc09c2084c21964d00393620b6707be6e6d3c23c53ed2e105d641d0e583f0f",
            "0x0000000000000000000000000000000000000000000000000000000000000003",
            "0x0000000000000000000000004147bfbc809baa168fa9375ce7d48d84eb27146b"
          ],
          "data": "0x00000000000000000000000000000000000000000000021e19e0c9bab2400000000000000000000000000000000000000000000000000000000000000000000c0000000000000000000000000000000000000000000000000000000000000003",
          "blockHash": "0x10869ba6f7dc673f35e8cb3a11bdab67d8be39855973e88b122b92ae6c9c2264",
          "blockNumber": "0x81da983",
          "transactionHash": "0x246a5b3cc2d0b1ebe9ea309f87014162ff7c9a153489a2e59fb6a6ec3084d8ca",
          "transactionIndex": "0x2",
          "logIndex": "0x4",
          "removed": false
        }
      ],
      "logsBloom": "0x00000000000800000000000020000000004000000000000000000000200000000000000010080000000000000000000100000000020000000000000000000000000000000000000000000008000000000000000000000000000000000000000000000000020001000004000000000800000000000000000000000010800000000000000000000000000000000000000000000040000000000000000008000000000000000000000000000000000000000000400000800000000000008000400000000002000040000008000000000000000000000000000000000000000020004000000000000000000000800000000000000000000000000000000000000000",
      "type": "0x2",
      "transactionHash": "0x246a5b3cc2d0b1ebe9ea309f87014162ff7c9a153489a2e59fb6a6ec3084d8ca",
      "transactionIndex": "0x2",
      "blockHash": "0x10869ba6f7dc673f35e8cb3a11bdab67d8be39855973e88b122b92ae6c9c2264",
      "blockNumber": "0x81da983",
      "gasUsed": "0xaa7f6",
      "effectiveGasPrice": "0x5f5e100",
      "from": "0x4147bfbc809baa168fa9375ce7d48d84eb27146b",
      "to": "0x7e00a6dff783649fb3017151652448647600d47e",
      "contractAddress": null,
      "gasUsedForL1": "0x9183",
      "l1BlockNumber": "0x79e0cb"
    }
  ],
  "libraries": [],
  "pending": [],
  "returns": {},
  "timestamp": 1743016725,
  "chain": 421614,
  "commit": "edd7f9e"
}