{
  "transactions": [
    {
      "hash": "0x97cc1dfba3658508695e3d1b2082f3dd88f14d2055839a206df73bac3958d35d",
      "transactionType": "CALL",
      "contractName": null,
      "contractAddress": "0x75e8927ffabd709d7e55ed44c7a19166a0b215a7",
      "function": "transfer(address,uint256)",
      "arguments": [
        "0x1E6b84cdD0ea0e4B26bdAC857C5EdFc47FC5627a",
        "40000000000000000000000"
      ],
      "transaction": {
        "from": "0x8dc791f24589f480ff31fe654d09bd01b5c5c2e8",
        "to": "0x75e8927ffabd709d7e55ed44c7a19166a0b215a7",
        "gas": "0x1e32c",
        "value": "0x0",
        "input": "0xa9059cbb0000000000000000000000001e6b84cdd0ea0e4b26bdac857c5edfc47fc5627a000000000000000000000000000000000000000000000878678326eac9000000",
        "nonce": "0x54",
        "chainId": "0x66eee"
      },
      "additionalContracts": [],
      "isFixedGasLimit": false
    },
    {
      "hash": "0x911e7530c1cee3c772596b841d400d7a1430c59e966b4d961c5bd0ef8e76f726",
      "transactionType": "CALL",
      "contractName": null,
      "contractAddress": "0x75e8927ffabd709d7e55ed44c7a19166a0b215a7",
      "function": "approve(address,uint256)",
      "arguments": [
        "0xa6c364E36bB6329EE55BDBfA62318108275662a7",
        "10000000000000000000000"
      ],
      "transaction": {
        "from": "0x1e6b84cdd0ea0e4b26bdac857c5edfc47fc5627a",
        "to": "0x75e8927ffabd709d7e55ed44c7a19166a0b215a7",
        "gas": "0x21f50",
        "value": "0x0",
        "input": "0x095ea7b3000000000000000000000000a6c364e36bb6329ee55bdbfa62318108275662a700000000000000000000000000000000000000000000021e19e0c9bab2400000",
        "nonce": "0x5",
        "chainId": "0x66eee"
      },
      "additionalContracts": [],
      "isFixedGasLimit": false
    },
    {
      "hash": "0x0bce0de867ba5e9a83488c606894b778a228abc1fdad60de5acc7c64bb3a41c2",
      "transactionType": "CALL",
      "contractName": null,
      "contractAddress": "0xa6c364e36bb6329ee55bdbfa62318108275662a7",
      "function": "proposeInitiativeWithLock(string,string,uint256,uint256)",
      "arguments": [
        "Implement Governance Updates #0",
        "This proposal aims to improve the current governance structure...\\n\\nProposal ID: 0\\nSubmitted as part of the test dataset",
        "10000000000000000000000",
        "12"
      ],
      "transaction": {
        "from": "0x1e6b84cdd0ea0e4b26bdac857c5edfc47fc5627a",
        "to": "0xa6c364e36bb6329ee55bdbfa62318108275662a7",
        "gas": "0xf74a0",
        "value": "0x0",
        "input": "0x883c7396000000000000000000000000000000000000000000000000000000000000008000000000000000000000000000000000000000000000000000000000000000c000000000000000000000000000000000000000000000021e19e0c9bab2400000000000000000000000000000000000000000000000000000000000000000000c000000000000000000000000000000000000000000000000000000000000001f496d706c656d656e7420476f7665726e616e63652055706461746573202330000000000000000000000000000000000000000000000000000000000000000077546869732070726f706f73616c2061696d7320746f20696d70726f7665207468652063757272656e7420676f7665726e616e6365207374727563747572652e2e2e0a0a50726f706f73616c2049443a20300a5375626d69747465642061732070617274206f662074686520746573742064617461736574000000000000000000",
        "nonce": "0x6",
        "chainId": "0x66eee"
      },
      "additionalContracts": [],
      "isFixedGasLimit": false
    },
    {
      "hash": "0x81b06eaadeed3b9897e38359bda60794a44af8c48a629f718583a32a02b88d44",
      "transactionType": "CALL",
      "contractName": null,
      "contractAddress": "0x75e8927ffabd709d7e55ed44c7a19166a0b215a7",
      "function": "transfer(address,uint256)",
      "arguments": [
        "0x3203b666CC57189BBc81823d49aAA553BBc241D2",
        "40000000000000000000000"
      ],
      "transaction": {
        "from": "0x8dc791f24589f480ff31fe654d09bd01b5c5c2e8",
        "to": "0x75e8927ffabd709d7e55ed44c7a19166a0b215a7",
        "gas": "0x1e32c",
        "value": "0x0",
        "input": "0xa9059cbb0000000000000000000000003203b666cc57189bbc81823d49aaa553bbc241d2000000000000000000000000000000000000000000000878678326eac9000000",
        "nonce": "0x55",
        "chainId": "0x66eee"
      },
      "additionalContracts": [],
      "isFixedGasLimit": false
    },
    {
      "hash": "0x1e8a89ef8900a24c000ec8b7fa80e4d67c1b044b5411ee3e5181a0def4a5f54c",
      "transactionType": "CALL",
      "contractName": null,
      "contractAddress": "0x75e8927ffabd709d7e55ed44c7a19166a0b215a7",
      "function": "approve(address,uint256)",
      "arguments": [
        "0xa6c364E36bB6329EE55BDBfA62318108275662a7",
        "10000000000000000000000"
      ],
      "transaction": {
        "from": "0x3203b666cc57189bbc81823d49aaa553bbc241d2",
        "to": "0x75e8927ffabd709d7e55ed44c7a19166a0b215a7",
        "gas": "0x21f50",
        "value": "0x0",
        "input": "0x095ea7b3000000000000000000000000a6c364e36bb6329ee55bdbfa62318108275662a700000000000000000000000000000000000000000000021e19e0c9bab2400000",
        "nonce": "0x4",
        "chainId": "0x66eee"
      },
      "additionalContracts": [],
      "isFixedGasLimit": false
    },
    {
      "hash": "0x40a4d5849ca13159f444e55782ae3073ab7e920becda4bf6c1f42d6a9f27b7f7",
      "transactionType": "CALL",
      "contractName": null,
      "contractAddress": "0xa6c364e36bb6329ee55bdbfa62318108275662a7",
      "function": "proposeInitiativeWithLock(string,string,uint256,uint256)",
      "arguments": [
        "Treasury Allocation Proposal #1",
        "A strategic allocation of treasury funds for sustainable growth...\\n\\nProposal ID: 1\\nSubmitted as part of the test dataset",
        "10000000000000000000000",
        "12"
      ],
      "transaction": {
        "from": "0x3203b666cc57189bbc81823d49aaa553bbc241d2",
        "to": "0xa6c364e36bb6329ee55bdbfa62318108275662a7",
        "gas": "0xdef75",
        "value": "0x0",
        "input": "0x883c7396000000000000000000000000000000000000000000000000000000000000008000000000000000000000000000000000000000000000000000000000000000c000000000000000000000000000000000000000000000021e19e0c9bab2400000000000000000000000000000000000000000000000000000000000000000000c000000000000000000000000000000000000000000000000000000000000001f547265617375727920416c6c6f636174696f6e2050726f706f73616c202331000000000000000000000000000000000000000000000000000000000000000078412073747261746567696320616c6c6f636174696f6e206f662074726561737572792066756e647320666f72207375737461696e61626c652067726f7774682e2e2e0a0a50726f706f73616c2049443a20310a5375626d69747465642061732070617274206f6620746865207465737420646174617365740000000000000000",
        "nonce": "0x5",
        "chainId": "0x66eee"
      },
      "additionalContracts": [],
      "isFixedGasLimit": false
    },
    {
      "hash": "0xbdd58a39b6d72cc40f65a36eac27ab718bc295fdec8941674185c0608e1e1fa7",
      "transactionType": "CALL",
      "contractName": null,
      "contractAddress": "0x75e8927ffabd709d7e55ed44c7a19166a0b215a7",
      "function": "transfer(address,uint256)",
      "arguments": [
        "0x4147bfbC809baa168fA9375ce7D48d84eB27146B",
        "40000000000000000000000"
      ],
      "transaction": {
        "from": "0x8dc791f24589f480ff31fe654d09bd01b5c5c2e8",
        "to": "0x75e8927ffabd709d7e55ed44c7a19166a0b215a7",
        "gas": "0x1e32c",
        "value": "0x0",
        "input": "0xa9059cbb0000000000000000000000004147bfbc809baa168fa9375ce7d48d84eb27146b000000000000000000000000000000000000000000000878678326eac9000000",
        "nonce": "0x56",
        "chainId": "0x66eee"
      },
      "additionalContracts": [],
      "isFixedGasLimit": false
    },
    {
      "hash": "0xa1fc715a1469e75e19b1fe45f35410dbac8c0594c8abf4495d53bb6e67bb2a4d",
      "transactionType": "CALL",
      "contractName": null,
      "contractAddress": "0x75e8927ffabd709d7e55ed44c7a19166a0b215a7",
      "function": "approve(address,uint256)",
      "arguments": [
        "0xa6c364E36bB6329EE55BDBfA62318108275662a7",
        "10000000000000000000000"
      ],
      "transaction": {
        "from": "0x4147bfbc809baa168fa9375ce7d48d84eb27146b",
        "to": "0x75e8927ffabd709d7e55ed44c7a19166a0b215a7",
        "gas": "0x21f50",
        "value": "0x0",
        "input": "0x095ea7b3000000000000000000000000a6c364e36bb6329ee55bdbfa62318108275662a700000000000000000000000000000000000000000000021e19e0c9bab2400000",
        "nonce": "0x4",
        "chainId": "0x66eee"
      },
      "additionalContracts": [],
      "isFixedGasLimit": false
    },
    {
      "hash": "0x8624ee3b4ae93051d470df4fd64e37fc919fd9f8ada81651ba88750b4a16f0ae",
      "transactionType": "CALL",
      "contractName": null,
      "contractAddress": "0xa6c364e36bb6329ee55bdbfa62318108275662a7",
      "function": "proposeInitiativeWithLock(string,string,uint256,uint256)",
      "arguments": [
        "Community Development Fund #2",
        "Creating a dedicated fund for community-driven development...\\n\\nProposal ID: 2\\nSubmitted as part of the test dataset",
        "10000000000000000000000",
        "12"
      ],
      "transaction": {
        "from": "0x4147bfbc809baa168fa9375ce7d48d84eb27146b",
        "to": "0xa6c364e36bb6329ee55bdbfa62318108275662a7",
        "gas": "0xec0d4",
        "value": "0x0",
        "input": "0x883c7396000000000000000000000000000000000000000000000000000000000000008000000000000000000000000000000000000000000000000000000000000000c000000000000000000000000000000000000000000000021e19e0c9bab2400000000000000000000000000000000000000000000000000000000000000000000c000000000000000000000000000000000000000000000000000000000000001d436f6d6d756e69747920446576656c6f706d656e742046756e6420233200000000000000000000000000000000000000000000000000000000000000000000734372656174696e672061206465646963617465642066756e6420666f7220636f6d6d756e6974792d64726976656e20646576656c6f706d656e742e2e2e0a0a50726f706f73616c2049443a20320a5375626d69747465642061732070617274206f66207468652074657374206461746173657400000000000000000000000000",
        "nonce": "0x5",
        "chainId": "0x66eee"
      },
      "additionalContracts": [],
      "isFixedGasLimit": false
    }
  ],
  "receipts": [
    {
      "status": "0x1",
      "cumulativeGasUsed": "0x13b8f",
      "logs": [
        {
          "address": "0x75e8927ffabd709d7e55ed44c7a19166a0b215a7",
          "topics": [
            "0xddf252ad1be2c89b69c2b068fc378daa952ba7f163c4a11628f55a4df523b3ef",
            "0x0000000000000000000000008dc791f24589f480ff31fe654d09bd01b5c5c2e8",
            "0x0000000000000000000000001e6b84cdd0ea0e4b26bdac857c5edfc47fc5627a"
          ],
          "data": "0x000000000000000000000000000000000000000000000878678326eac9000000",
          "blockHash": "0x4fc2038917cdc6f2040826ce880afac77fffdf54457b9c56213426ae79ccbbd8",
          "blockNumber": "0x8179987",
          "transactionHash": "0x97cc1dfba3658508695e3d1b2082f3dd88f14d2055839a206df73bac3958d35d",
          "transactionIndex": "0x1",
          "logIndex": "0x0",
          "removed": false
        }
      ],
      "logsBloom": "0x00000000000000000000000000000000000000000000000000000000000000000000000000000000000000000000000000000800000000000040000000000000000000000000000000000008000000000020000000000000000000000000100000000000000400000000000000000000000000000000000000000810000000000000000000004000000040000000000000000000000000000000000000000000000000000000000000000000000000000000000000000000000000000000000000000002000000000000000000000000000000000000000000000001000000000000000000000000000000000000000000000000000000000000000000000000",
      "type": "0x2",
      "transactionHash": "0x97cc1dfba3658508695e3d1b2082f3dd88f14d2055839a206df73bac3958d35d",
      "transactionIndex": "0x1",
      "blockHash": "0x4fc2038917cdc6f2040826ce880afac77fffdf54457b9c56213426ae79ccbbd8",
      "blockNumber": "0x8179987",
      "gasUsed": "0x13b8f",
      "effectiveGasPrice": "0x5f5e100",
      "from": "0x8dc791f24589f480ff31fe654d09bd01b5c5c2e8",
      "to": "0x75e8927ffabd709d7e55ed44c7a19166a0b215a7",
      "contractAddress": null,
      "gasUsedForL1": "0xb607",
      "l1BlockNumber": "0x79be95"
    },
    {
      "status": "0x1",
      "cumulativeGasUsed": "0xb6fba",
      "logs": [
        {
          "address": "0x75e8927ffabd709d7e55ed44c7a19166a0b215a7",
          "topics": [
            "0x8c5be1e5ebec7d5bd14f71427d1e84f3dd0314c0f7b2291e5b200ac8c7c3b925",
            "0x0000000000000000000000001e6b84cdd0ea0e4b26bdac857c5edfc47fc5627a",
            "0x000000000000000000000000a6c364e36bb6329ee55bdbfa62318108275662a7"
          ],
          "data": "0x00000000000000000000000000000000000000000000021e19e0c9bab2400000",
          "blockHash": "0x5913ea66d1c810c5f3a3b539e12b5d0b7b11c7186efbaf04d599b743d36c986f",
          "blockNumber": "0x817998b",
          "transactionHash": "0x911e7530c1cee3c772596b841d400d7a1430c59e966b4d961c5bd0ef8e76f726",
          "transactionIndex": "0x4",
          "logIndex": "0x6",
          "removed": false
        }
      ],
      "logsBloom": "0x00000000000000000000000000000000000000000000000000000000000000000000000000000000000000000000000000000800000000000040000040200000000000000000000000000000000000000020000000000000000000000000100000000000000500000000000000000000000000000000000000000000000000000000000000000000000040000000000000000000000000000000000000000000020000000000000000000000000000000000000000000000000000000000000000000000000000000000000010000000000000000000000000000000000000000010000000000000000000000000000000000000000000000000000000000000",
      "type": "0x2",
      "transactionHash": "0x911e7530c1cee3c772596b841d400d7a1430c59e966b4d961c5bd0ef8e76f726",
      "transactionIndex": "0x4",
      "blockHash": "0x5913ea66d1c810c5f3a3b539e12b5d0b7b11c7186efbaf04d599b743d36c986f",
      "blockNumber": "0x817998b",
      "gasUsed": "0x169a4",
      "effectiveGasPrice": "0x5f5e100",
      "from": "0x1e6b84cdd0ea0e4b26bdac857c5edfc47fc5627a",
      "to": "0x75e8927ffabd709d7e55ed44c7a19166a0b215a7",
      "contractAddress": null,
      "gasUsedForL1": "0xb607",
      "l1BlockNumber": "0x79be95"
    },
    {
      "status": "0x1",
      "cumulativeGasUsed": "0xe2398",
      "logs": [
        {
          "address": "0xa6c364e36bb6329ee55bdbfa62318108275662a7",
          "topics": [
            "0x39b35db192ce609adcab6c4cb18960e39d6af29bb28ea22aa4f3b56defa0595a",
            "0x0000000000000000000000000000000000000000000000000000000000000001",
            "0x0000000000000000000000001e6b84cdd0ea0e4b26bdac857c5edfc47fc5627a"
          ],
          "data": "0x00000000000000000000000000000000000000000000000000000000000000400000000000000000000000000000000000000000000000000000000000000080000000000000000000000000000000000000000000000000000000000000001f496d706c656d656e7420476f7665726e616e63652055706461746573202330000000000000000000000000000000000000000000000000000000000000000077546869732070726f706f73616c2061696d7320746f20696d70726f7665207468652063757272656e7420676f7665726e616e6365207374727563747572652e2e2e0a0a50726f706f73616c2049443a20300a5375626d69747465642061732070617274206f662074686520746573742064617461736574000000000000000000",
          "blockHash": "0x5172e3ac31b178b3673b29d5c78bd5bd001c6d91ecda206a29faf7d167cff270",
          "blockNumber": "0x817998f",
          "transactionHash": "0x0bce0de867ba5e9a83488c606894b778a228abc1fdad60de5acc7c64bb3a41c2",
          "transactionIndex": "0x2",
          "logIndex": "0x3",
          "removed": false
        },
        {
          "address": "0x75e8927ffabd709d7e55ed44c7a19166a0b215a7",
          "topics": [
            "0xddf252ad1be2c89b69c2b068fc378daa952ba7f163c4a11628f55a4df523b3ef",
            "0x0000000000000000000000001e6b84cdd0ea0e4b26bdac857c5edfc47fc5627a",
            "0x000000000000000000000000a6c364e36bb6329ee55bdbfa62318108275662a7"
          ],
          "data": "0x00000000000000000000000000000000000000000000021e19e0c9bab2400000",
          "blockHash": "0x5172e3ac31b178b3673b29d5c78bd5bd001c6d91ecda206a29faf7d167cff270",
          "blockNumber": "0x817998f",
          "transactionHash": "0x0bce0de867ba5e9a83488c606894b778a228abc1fdad60de5acc7c64bb3a41c2",
          "transactionIndex": "0x2",
          "logIndex": "0x4",
          "removed": false
        },
        {
          "address": "0xa6c364e36bb6329ee55bdbfa62318108275662a7",
          "topics": [
            "0xddf252ad1be2c89b69c2b068fc378daa952ba7f163c4a11628f55a4df523b3ef",
            "0x0000000000000000000000000000000000000000000000000000000000000000",
            "0x0000000000000000000000001e6b84cdd0ea0e4b26bdac857c5edfc47fc5627a",
            "0x0000000000000000000000000000000000000000000000000000000000000001"
          ],
          "data": "0x",
          "blockHash": "0x5172e3ac31b178b3673b29d5c78bd5bd001c6d91ecda206a29faf7d167cff270",
          "blockNumber": "0x817998f",
          "transactionHash": "0x0bce0de867ba5e9a83488c606894b778a228abc1fdad60de5acc7c64bb3a41c2",
          "transactionIndex": "0x2",
          "logIndex": "0x5",
          "removed": false
        },
        {
          "address": "0xa6c364e36bb6329ee55bdbfa62318108275662a7",
          "topics": [
            "0xe1cc09c2084c21964d00393620b6707be6e6d3c23c53ed2e105d641d0e583f0f",
            "0x0000000000000000000000000000000000000000000000000000000000000001",
            "0x0000000000000000000000001e6b84cdd0ea0e4b26bdac857c5edfc47fc5627a"
          ],
          "data": "0x00000000000000000000000000000000000000000000021e19e0c9bab2400000000000000000000000000000000000000000000000000000000000000000000c0000000000000000000000000000000000000000000000000000000000000001",
          "blockHash": "0x5172e3ac31b178b3673b29d5c78bd5bd001c6d91ecda206a29faf7d167cff270",
          "blockNumber": "0x817998f",
          "transactionHash": "0x0bce0de867ba5e9a83488c606894b778a228abc1fdad60de5acc7c64bb3a41c2",
          "transactionIndex": "0x2",
          "logIndex": "0x6",
          "removed": false
        }
      ],
      "logsBloom": "0x00000000000000000000000020000000000000000000000000000000200000000000000000080000000000000000000100000800000000000040000040040000000000000000000000000008000000000020000000040000000000000000100000000000020500000000000000000800000000000000000000000010001000000000000000100000000040000000000000000000000000000000000000000000000000000000000000000000000000000000000000000000000000000000000000000002000000000000000010000000008000000000000000000000000060004000000000000000000000800000000000000000000000000000000000000000",
      "type": "0x2",
      "transactionHash": "0x0bce0de867ba5e9a83488c606894b778a228abc1fdad60de5acc7c64bb3a41c2",
      "transactionIndex": "0x2",
      "blockHash": "0x5172e3ac31b178b3673b29d5c78bd5bd001c6d91ecda206a29faf7d167cff270",
      "blockNumber": "0x817998f",
      "gasUsed": "0xc0571",
      "effectiveGasPrice": "0x5f5e100",
      "from": "0x1e6b84cdd0ea0e4b26bdac857c5edfc47fc5627a",
      "to": "0xa6c364e36bb6329ee55bdbfa62318108275662a7",
      "contractAddress": null,
      "gasUsedForL1": "0x1740e",
      "l1BlockNumber": "0x79be95"
    },
    {
      "status": "0x1",
      "cumulativeGasUsed": "0x70d5e",
      "logs": [
        {
          "address": "0x75e8927ffabd709d7e55ed44c7a19166a0b215a7",
          "topics": [
            "0xddf252ad1be2c89b69c2b068fc378daa952ba7f163c4a11628f55a4df523b3ef",
            "0x0000000000000000000000008dc791f24589f480ff31fe654d09bd01b5c5c2e8",
            "0x0000000000000000000000003203b666cc57189bbc81823d49aaa553bbc241d2"
          ],
          "data": "0x000000000000000000000000000000000000000000000878678326eac9000000",
          "blockHash": "0xfa3bf8a5a454d7880c797e5c97444f277ab225e27ce293be10e338ba5cd0b0a9",
          "blockNumber": "0x817999a",
          "transactionHash": "0x81b06eaadeed3b9897e38359bda60794a44af8c48a629f718583a32a02b88d44",
          "transactionIndex": "0x2",
          "logIndex": "0x4",
          "removed": false
        }
      ],
      "logsBloom": "0x00000000000000000000000000000000000000000000000000000000001000000000000000000000000000000000000000000000000000000040000000000000000000000000000000000008000000000000000000000000000000000000100000000000000000000000000000000000000000000000000000000810000000000000000000004000000040000000000000000000000000000000000000000000000000000000000000000001000000000000000000000000000000000000000000000002000000000000000000000000000000000000020000000001000000000000000000000000000000000000000000000000000000000000000000000000",
      "type": "0x2",
      "transactionHash": "0x81b06eaadeed3b9897e38359bda60794a44af8c48a629f718583a32a02b88d44",
      "transactionIndex": "0x2",
      "blockHash": "0xfa3bf8a5a454d7880c797e5c97444f277ab225e27ce293be10e338ba5cd0b0a9",
      "blockNumber": "0x817999a",
      "gasUsed": "0x13b8f",
      "effectiveGasPrice": "0x5f5e100",
      "from": "0x8dc791f24589f480ff31fe654d09bd01b5c5c2e8",
      "to": "0x75e8927ffabd709d7e55ed44c7a19166a0b215a7",
      "contractAddress": null,
      "gasUsedForL1": "0xb607",
      "l1BlockNumber": "0x79be95"
    },
    {
      "status": "0x1",
      "cumulativeGasUsed": "0x169a4",
      "logs": [
        {
          "address": "0x75e8927ffabd709d7e55ed44c7a19166a0b215a7",
          "topics": [
            "0x8c5be1e5ebec7d5bd14f71427d1e84f3dd0314c0f7b2291e5b200ac8c7c3b925",
            "0x0000000000000000000000003203b666cc57189bbc81823d49aaa553bbc241d2",
            "0x000000000000000000000000a6c364e36bb6329ee55bdbfa62318108275662a7"
          ],
          "data": "0x00000000000000000000000000000000000000000000021e19e0c9bab2400000",
          "blockHash": "0x3c7885af6125a8b886c75eff1e2371ede4bdc9e285eeb0b5a768731f44f267c8",
          "blockNumber": "0x817999e",
          "transactionHash": "0x1e8a89ef8900a24c000ec8b7fa80e4d67c1b044b5411ee3e5181a0def4a5f54c",
          "transactionIndex": "0x1",
          "logIndex": "0x0",
          "removed": false
        }
      ],
      "logsBloom": "0x00000000000000000000000000000000000000000000000000000000001000000000000000000000000000000000000000000000000000000040000040200000000000000000000000000000000000000000000000000000000000000000100000000000000100000000000000000000000000000000000000000000000000000000000000000000000040000000000000000000000000000000000000000000020000000000000000000001000000000000000000000000000000000000000000000000000000000000000010000000000000000000020000000000000000000010000000000000000000000000000000000000000000000000000000000000",
      "type": "0x2",
      "transactionHash": "0x1e8a89ef8900a24c000ec8b7fa80e4d67c1b044b5411ee3e5181a0def4a5f54c",
      "transactionIndex": "0x1",
      "blockHash": "0x3c7885af6125a8b886c75eff1e2371ede4bdc9e285eeb0b5a768731f44f267c8",
      "blockNumber": "0x817999e",
      "gasUsed": "0x169a4",
      "effectiveGasPrice": "0x5f5e100",
      "from": "0x3203b666cc57189bbc81823d49aaa553bbc241d2",
      "to": "0x75e8927ffabd709d7e55ed44c7a19166a0b215a7",
      "contractAddress": null,
      "gasUsedForL1": "0xb607",
      "l1BlockNumber": "0x79be95"
    },
    {
      "status": "0x1",
      "cumulativeGasUsed": "0xb8ad5",
      "logs": [
        {
          "address": "0xa6c364e36bb6329ee55bdbfa62318108275662a7",
          "topics": [
            "0x39b35db192ce609adcab6c4cb18960e39d6af29bb28ea22aa4f3b56defa0595a",
            "0x0000000000000000000000000000000000000000000000000000000000000002",
            "0x0000000000000000000000003203b666cc57189bbc81823d49aaa553bbc241d2"
          ],
          "data": "0x00000000000000000000000000000000000000000000000000000000000000400000000000000000000000000000000000000000000000000000000000000080000000000000000000000000000000000000000000000000000000000000001f547265617375727920416c6c6f636174696f6e2050726f706f73616c202331000000000000000000000000000000000000000000000000000000000000000078412073747261746567696320616c6c6f636174696f6e206f662074726561737572792066756e647320666f72207375737461696e61626c652067726f7774682e2e2e0a0a50726f706f73616c2049443a20310a5375626d69747465642061732070617274206f6620746865207465737420646174617365740000000000000000",
          "blockHash": "0xd36e3b700fb0b07c938d96a6ca20930aa4adc2d09c9ec423082386d693ac5ad4",
          "blockNumber": "0x81799a2",
          "transactionHash": "0x40a4d5849ca13159f444e55782ae3073ab7e920becda4bf6c1f42d6a9f27b7f7",
          "transactionIndex": "0x1",
          "logIndex": "0x0",
          "removed": false
        },
        {
          "address": "0x75e8927ffabd709d7e55ed44c7a19166a0b215a7",
          "topics": [
            "0xddf252ad1be2c89b69c2b068fc378daa952ba7f163c4a11628f55a4df523b3ef",
            "0x0000000000000000000000003203b666cc57189bbc81823d49aaa553bbc241d2",
            "0x000000000000000000000000a6c364e36bb6329ee55bdbfa62318108275662a7"
          ],
          "data": "0x00000000000000000000000000000000000000000000021e19e0c9bab2400000",
          "blockHash": "0xd36e3b700fb0b07c938d96a6ca20930aa4adc2d09c9ec423082386d693ac5ad4",
          "blockNumber": "0x81799a2",
          "transactionHash": "0x40a4d5849ca13159f444e55782ae3073ab7e920becda4bf6c1f42d6a9f27b7f7",
          "transactionIndex": "0x1",
          "logIndex": "0x1",
          "removed": false
        },
        {
          "address": "0xa6c364e36bb6329ee55bdbfa62318108275662a7",
          "topics": [
            "0xddf252ad1be2c89b69c2b068fc378daa952ba7f163c4a11628f55a4df523b3ef",
            "0x0000000000000000000000000000000000000000000000000000000000000000",
            "0x0000000000000000000000003203b666cc57189bbc81823d49aaa553bbc241d2",
            "0x0000000000000000000000000000000000000000000000000000000000000002"
          ],
          "data": "0x",
          "blockHash": "0xd36e3b700fb0b07c938d96a6ca20930aa4adc2d09c9ec423082386d693ac5ad4",
          "blockNumber": "0x81799a2",
          "transactionHash": "0x40a4d5849ca13159f444e55782ae3073ab7e920becda4bf6c1f42d6a9f27b7f7",
          "transactionIndex": "0x1",
          "logIndex": "0x2",
          "removed": false
        },
        {
          "address": "0xa6c364e36bb6329ee55bdbfa62318108275662a7",
          "topics": [
            "0xe1cc09c2084c21964d00393620b6707be6e6d3c23c53ed2e105d641d0e583f0f",
            "0x0000000000000000000000000000000000000000000000000000000000000002",
            "0x0000000000000000000000003203b666cc57189bbc81823d49aaa553bbc241d2"
          ],
          "data": "0x00000000000000000000000000000000000000000000021e19e0c9bab2400000000000000000000000000000000000000000000000000000000000000000000c0000000000000000000000000000000000000000000000000000000000000002",
          "blockHash": "0xd36e3b700fb0b07c938d96a6ca20930aa4adc2d09c9ec423082386d693ac5ad4",
          "blockNumber": "0x81799a2",
          "transactionHash": "0x40a4d5849ca13159f444e55782ae3073ab7e920becda4bf6c1f42d6a9f27b7f7",
          "transactionIndex": "0x1",
          "logIndex": "0x3",
          "removed": false
        }
      ],
      "logsBloom": "0x04000000000000000000000020000000000000000000000000000000201000000000000000080000000000000000000100000000000000000040000040000000000000000000000000000008000000000000000000000000000000000000100000000000020100000000000000000800000000000000000000000010001000000000000000100000000040000000000000000000000000000000000000000000000000000000000000000101000000000000000000000000000000000000000000000002000000000000000010000000008000000000020000000000000020004000000000000000000000800000000000000000008000000000000000000000",
      "type": "0x2",
      "transactionHash": "0x40a4d5849ca13159f444e55782ae3073ab7e920becda4bf6c1f42d6a9f27b7f7",
      "transactionIndex": "0x1",
      "blockHash": "0xd36e3b700fb0b07c938d96a6ca20930aa4adc2d09c9ec423082386d693ac5ad4",
      "blockNumber": "0x81799a2",
      "gasUsed": "0xb8ad5",
      "effectiveGasPrice": "0x5f5e100",
      "from": "0x3203b666cc57189bbc81823d49aaa553bbc241d2",
      "to": "0xa6c364e36bb6329ee55bdbfa62318108275662a7",
      "contractAddress": null,
      "gasUsedForL1": "0x1740e",
      "l1BlockNumber": "0x79be95"
    },
    {
      "status": "0x1",
      "cumulativeGasUsed": "0xc0b77",
      "logs": [
        {
          "address": "0x75e8927ffabd709d7e55ed44c7a19166a0b215a7",
          "topics": [
            "0xddf252ad1be2c89b69c2b068fc378daa952ba7f163c4a11628f55a4df523b3ef",
            "0x0000000000000000000000008dc791f24589f480ff31fe654d09bd01b5c5c2e8",
            "0x0000000000000000000000004147bfbc809baa168fa9375ce7d48d84eb27146b"
          ],
          "data": "0x000000000000000000000000000000000000000000000878678326eac9000000",
          "blockHash": "0x8478aacf92b30cefeaaa7bb9c9abed28534e2ef3e458e4e6ffc540657381050c",
          "blockNumber": "0x81799a6",
          "transactionHash": "0xbdd58a39b6d72cc40f65a36eac27ab718bc295fdec8941674185c0608e1e1fa7",
          "transactionIndex": "0x2",
          "logIndex": "0x1",
          "removed": false
        }
      ],
      "logsBloom": "0x00000000000000000000000000000000000000000000000000000000000000000000000000000000000000000000000000000000000000000040000000000000000000000000000000000008000000000000000000000000000000000000100000000000000000000000000000000000000000000000000000000810800000000000000000004000000040000000000000000000000000000000000008000000000000000000000000000000000000000000000000000000000000000000000000000002000000000008000000000000000000000000000000000001000000000000000000000000000000000000000000000000000000000000000000000000",
      "type": "0x2",
      "transactionHash": "0xbdd58a39b6d72cc40f65a36eac27ab718bc295fdec8941674185c0608e1e1fa7",
      "transactionIndex": "0x2",
      "blockHash": "0x8478aacf92b30cefeaaa7bb9c9abed28534e2ef3e458e4e6ffc540657381050c",
      "blockNumber": "0x81799a6",
      "gasUsed": "0x13b8f",
      "effectiveGasPrice": "0x5f5e100",
      "from": "0x8dc791f24589f480ff31fe654d09bd01b5c5c2e8",
      "to": "0x75e8927ffabd709d7e55ed44c7a19166a0b215a7",
      "contractAddress": null,
      "gasUsedForL1": "0xb607",
      "l1BlockNumber": "0x79be95"
    },
    {
      "status": "0x1",
      "cumulativeGasUsed": "0x169a4",
      "logs": [
        {
          "address": "0x75e8927ffabd709d7e55ed44c7a19166a0b215a7",
          "topics": [
            "0x8c5be1e5ebec7d5bd14f71427d1e84f3dd0314c0f7b2291e5b200ac8c7c3b925",
            "0x0000000000000000000000004147bfbc809baa168fa9375ce7d48d84eb27146b",
            "0x000000000000000000000000a6c364e36bb6329ee55bdbfa62318108275662a7"
          ],
          "data": "0x00000000000000000000000000000000000000000000021e19e0c9bab2400000",
          "blockHash": "0xca7289717192a97f55c8fab2b74c210f32faeaca2cb628da2cd9cdeb9e0a75f9",
          "blockNumber": "0x81799aa",
          "transactionHash": "0xa1fc715a1469e75e19b1fe45f35410dbac8c0594c8abf4495d53bb6e67bb2a4d",
          "transactionIndex": "0x1",
          "logIndex": "0x0",
          "removed": false
        }
      ],
      "logsBloom": "0x00000000000000000000000000000000000000000000000000000000000000000000000000000000000000000000000000000000000000000040000040200000000000000000000000000000000000000000000000000000000000000000100000000000000100000000000000000000000000000000000000000000800000000000000000000000000040000000000000000000000000000000000008000000020000000000000000000000000000000000000000000000000000000000000000000000000000000008000010000000000000000000000000000000000000000010000000000000000000000000000000000000000000000000000000000000",
      "type": "0x2",
      "transactionHash": "0xa1fc715a1469e75e19b1fe45f35410dbac8c0594c8abf4495d53bb6e67bb2a4d",
      "transactionIndex": "0x1",
      "blockHash": "0xca7289717192a97f55c8fab2b74c210f32faeaca2cb628da2cd9cdeb9e0a75f9",
      "blockNumber": "0x81799aa",
      "gasUsed": "0x169a4",
      "effectiveGasPrice": "0x5f5e100",
      "from": "0x4147bfbc809baa168fa9375ce7d48d84eb27146b",
      "to": "0x75e8927ffabd709d7e55ed44c7a19166a0b215a7",
      "contractAddress": null,
      "gasUsedForL1": "0xb607",
      "l1BlockNumber": "0x79be95"
    },
    {
      "status": "0x1",
      "cumulativeGasUsed": "0xb8781",
      "logs": [
        {
          "address": "0xa6c364e36bb6329ee55bdbfa62318108275662a7",
          "topics": [
            "0x39b35db192ce609adcab6c4cb18960e39d6af29bb28ea22aa4f3b56defa0595a",
            "0x0000000000000000000000000000000000000000000000000000000000000003",
            "0x0000000000000000000000004147bfbc809baa168fa9375ce7d48d84eb27146b"
          ],
          "data": "0x00000000000000000000000000000000000000000000000000000000000000400000000000000000000000000000000000000000000000000000000000000080000000000000000000000000000000000000000000000000000000000000001d436f6d6d756e69747920446576656c6f706d656e742046756e6420233200000000000000000000000000000000000000000000000000000000000000000000734372656174696e672061206465646963617465642066756e6420666f7220636f6d6d756e6974792d64726976656e20646576656c6f706d656e742e2e2e0a0a50726f706f73616c2049443a20320a5375626d69747465642061732070617274206f66207468652074657374206461746173657400000000000000000000000000",
          "blockHash": "0x2ced2baf3880016fcdea370e400c4b4f38817715062b8dca69b238e33d764550",
          "blockNumber": "0x81799ae",
          "transactionHash": "0x8624ee3b4ae93051d470df4fd64e37fc919fd9f8ada81651ba88750b4a16f0ae",
          "transactionIndex": "0x1",
          "logIndex": "0x0",
          "removed": false
        },
        {
          "address": "0x75e8927ffabd709d7e55ed44c7a19166a0b215a7",
          "topics": [
            "0xddf252ad1be2c89b69c2b068fc378daa952ba7f163c4a11628f55a4df523b3ef",
            "0x0000000000000000000000004147bfbc809baa168fa9375ce7d48d84eb27146b",
            "0x000000000000000000000000a6c364e36bb6329ee55bdbfa62318108275662a7"
          ],
          "data": "0x00000000000000000000000000000000000000000000021e19e0c9bab2400000",
          "blockHash": "0x2ced2baf3880016fcdea370e400c4b4f38817715062b8dca69b238e33d764550",
          "blockNumber": "0x81799ae",
          "transactionHash": "0x8624ee3b4ae93051d470df4fd64e37fc919fd9f8ada81651ba88750b4a16f0ae",
          "transactionIndex": "0x1",
          "logIndex": "0x1",
          "removed": false
        },
        {
          "address": "0xa6c364e36bb6329ee55bdbfa62318108275662a7",
          "topics": [
            "0xddf252ad1be2c89b69c2b068fc378daa952ba7f163c4a11628f55a4df523b3ef",
            "0x0000000000000000000000000000000000000000000000000000000000000000",
            "0x0000000000000000000000004147bfbc809baa168fa9375ce7d48d84eb27146b",
            "0x0000000000000000000000000000000000000000000000000000000000000003"
          ],
          "data": "0x",
          "blockHash": "0x2ced2baf3880016fcdea370e400c4b4f38817715062b8dca69b238e33d764550",
          "blockNumber": "0x81799ae",
          "transactionHash": "0x8624ee3b4ae93051d470df4fd64e37fc919fd9f8ada81651ba88750b4a16f0ae",
          "transactionIndex": "0x1",
          "logIndex": "0x2",
          "removed": false
        },
        {
          "address": "0xa6c364e36bb6329ee55bdbfa62318108275662a7",
          "topics": [
            "0xe1cc09c2084c21964d00393620b6707be6e6d3c23c53ed2e105d641d0e583f0f",
            "0x0000000000000000000000000000000000000000000000000000000000000003",
            "0x0000000000000000000000004147bfbc809baa168fa9375ce7d48d84eb27146b"
          ],
          "data": "0x00000000000000000000000000000000000000000000021e19e0c9bab2400000000000000000000000000000000000000000000000000000000000000000000c0000000000000000000000000000000000000000000000000000000000000003",
          "blockHash": "0x2ced2baf3880016fcdea370e400c4b4f38817715062b8dca69b238e33d764550",
          "blockNumber": "0x81799ae",
          "transactionHash": "0x8624ee3b4ae93051d470df4fd64e37fc919fd9f8ada81651ba88750b4a16f0ae",
          "transactionIndex": "0x1",
          "logIndex": "0x3",
          "removed": false
        }
      ],
      "logsBloom": "0x00000000000000000000000020000000000000000000000000000000200000000000000000080000000000000000000100000000020000000040000040000000000000000000000000000008000000000000000000000000000000000000100000000000020100000000000000000800000000000000000000000010801000000000000000100000000040000000000000000000000000000000000008000000000000000000000000000000000000000000000000800000000000000000400000000002000000000008000010000000008000000000000000000000000020004000000000000000000000800000000000000000000000000000000000000000",
      "type": "0x2",
      "transactionHash": "0x8624ee3b4ae93051d470df4fd64e37fc919fd9f8ada81651ba88750b4a16f0ae",
      "transactionIndex": "0x1",
      "blockHash": "0x2ced2baf3880016fcdea370e400c4b4f38817715062b8dca69b238e33d764550",
      "blockNumber": "0x81799ae",
      "gasUsed": "0xb8781",
      "effectiveGasPrice": "0x5f5e100",
      "from": "0x4147bfbc809baa168fa9375ce7d48d84eb27146b",
      "to": "0xa6c364e36bb6329ee55bdbfa62318108275662a7",
      "contractAddress": null,
      "gasUsedForL1": "0x1710e",
      "l1BlockNumber": "0x79be95"
    }
  ],
  "libraries": [],
  "pending": [],
  "returns": {},
  "timestamp": 1742911447,
  "chain": 421614,
  "commit": "8c84018"
}